:020000040800F2
:100000006806002089010008F1020008ED020008DE
:10001000EF0200084302000831060008000000005B
:10002000000000000000000000000000E5030008E0
:100030004502000800000000B10300089104000818
:10004000A3010008A3010008A3010008A301000800
:10005000A3010008A3010008A3010008A3010008F0
:10006000A3010008A3010008A3010008A3010008E0
:10007000A3010008A3010008A3010008A3010008D0
:10008000A3010008A3010008A3010008A3010008C0
:10009000A3010008A3010008A3010008A3010008B0
:1000A000A3010008A3010008A3010008A3010008A0
:1000B0002D050008A3010008A3010008A301000802
:1000C000A3010008A3010008A3010008A301000880
:1000D000A3010008A3010008A3010008A301000870
:1000E000A3010008A3010008A301000800F002F822
:1000F00000F03AF80AA090E8000C82448344AAF188
:100100000107DA4501D100F02FF8AFF2090EBAE885
:100110000F0013F0010F18BFFB1A43F0010318473B
:100120007805000098050000103A24BF78C878C10F
:10013000FAD8520724BF30C830C144BF04680C60ED
:10014000704700000023002400250026103A28BF35
:1001500078C1FBD8520728BF30C148BF0B60704739
:100160001FB51FBD10B510BD00F031F81146FFF7E7
:10017000F7FF00F071FA00F04FF803B4FFF7F2FF59
:1001800003BC00F057F800000948804709480047C1
:10019000FEE7FEE7FEE7FEE7FEE7FEE7FEE7FEE737
:1001A000FEE7FEE704480549054A064B7047000094
:1001B00095040008ED000008680000206806002093
:1001C000680200206802002070477047704775463B
:1001D00000F02CF8AE4605006946534620F00700B3
:1001E000854618B020B5FFF7DDFFBDE820404FF091
:1001F00000064FF000074FF000084FF0000B21F011
:100200000701AC46ACE8C009ACE8C009ACE8C009DD
:10021000ACE8C0098D46704710B50446AFF30080C6
:100220002046BDE81040FFF7A8BF00000048704717
:100230000400002001491820ABBEFEE726000200A2
:100240007047FEE77047F0B5CC78002204F00F034A
:10025000E40601D58C7823430C784FF00F0C14F092
:10026000FF0F4FF0010E1BD005680E880EFA02F446
:100270002640A64210D196000CFA06F725EA070799
:1002800003FA06F5CE783D43282E02D0482E02D040
:1002900002E0446100E00461521C082AE5D30560D5
:1002A0000A88FF2A1CD94468002202F108060EFAC7
:1002B00006F50E882E40AE420ED196000CFA06F7D7
:1002C000BC4303FA06F7CE783C43282E00D14561A3
:1002D000CE78482E00D10561521C082AE5D344602F
:1002E000F0BD0AB10161704741617047FEE7FEE76A
:1002F000704700F01F02012191404009800000F189
:10030000E020C0F88012704708B54FF4C06000F0DC
:1003100045F81C208DF8000000208DF80100012018
:100320008DF802008DF80300684600F005F81C20E7
:10033000FFF7DFFF08BD000030B50F23C27801785A
:100340000125F2B1144A126801F1E02102F4E062E1
:10035000C2F5E062120AC2F10404D3404278A2401E
:1003600084781C401443220181F80024007800F0B6
:100370001F018D404009800000F1E020C0F80051CD
:1003800030BD01F01F0085404809800000F1E020E9
:10039000C0F8805130BD00000CED00E00249084378
:1003A00002490860704700000000FA050CED00E00B
:1003B00070470000044A0029D16901D0014300E0E0
:1003C0008143D1617047000000100240044A0029B7
:1003D000916901D0014300E08143916170470000C1
:1003E00000100240704700000CB500222648009221
:1003F0000192016841F4803101604FF4A06301680B
:1004000001F4003101910099491C0091019911B941
:1004100000999942F3D10168890333D501210191F3
:100420001A490A6842F010020A600A6822F00302C0
:100430000A600A6842F002020A604168416041684D
:100440004160416841F480614160416821F47C1160
:100450004160416841F4E8114160016841F08071F8
:10046000016001688901FCD5416821F00301416008
:10047000416841F0020141604168C1F381010229F4
:10048000FAD10CBD01920CBD0010024000200240C8
:10049000704700000F4810B5016841F0010101608C
:1004A00041680D4A1140416001680C4A11400160E9
:1004B000016821F480210160416821F4FE0141605E
:1004C0004FF41F018160FFF78FFF05494FF0006077
:1004D000086010BD001002400000FFF8FFFFF6FEAC
:1004E00008ED00E03EB50920ADF8040041F61F40DC
:1004F000ADF800000020ADF80600ADF802004FF0A6
:1005000080446946204600F045F801210846FFF77F
:1005100051FF0121204600F02BF801221146204610
:1005200000F030F81C20FFF7E4FE3EBD70B50E4C25
:100530000E4D21680B2907DA012204212846FFF716
:10054000D0FE20680B2804DB002204212846FFF798
:10055000C8FE1C20FFF7CDFE2068142801D1002022
:100560002060401C206070BD000000200008014099
:100570000029018802D041F0010101E021F00101D0
:1005800001807047002A828901D00A4300E08A4333
:100590008281704730B502881B4C1C4DA0420DD0A3
:1005A000A8420BD0B0F1804F08D0194B984205D02B
:1005B000184B984202D0184B984203D122F0700396
:1005C0004A881A43154B984206D0154B984203D0DF
:1005D00022F44073CA881A4302808A8882850A8876
:1005E0000285A0420AD0A84208D00E4A904205D007
:1005F0000D4A904202D00D4A904201D1097A0186FB
:100600000121818230BD0000002C014000340140F6
:100610000004004000080040000C004000100040B2
:1006200000140040004001400044014000480140E7
:10063000FEE738B50446ADF8001001218DF8021030
:1006400010218DF8031001210420FFF7BFFE694639
:100650002046FFF7F8FD38BD094D4FF6FF742146DF
:100660002846FFF7E6FF21460648FFF7E2FF00F0C5
:100670000BF8012204212846FFF733FEFEE70000B5
:1006800000080140000C014010B5FFF72BFFBDE84A
:100690001040FFF739BE0000B80600080000002037
:1006A0000400000028010008BC0600080400002027
:0C06B00064060000440100080000000087
:04000005080000ED02
:00000001FF
