:020000040800F2
:10000000E84B0020CD0200080D2700085723000808
:100010000D260008D91E0008173F00080000000048
:100020000000000000000000000000003502000891
:100030006D2100080000000079020008E93A00087C
:10004000E7020008E7020008E7020008E7020008EC
:10005000E7020008E7020008E7020008E7020008DC
:1000600071210008E70200088D210008E70200085E
:10007000E7020008E7020008E7020008E7020008BC
:10008000E7020008E7020008E7020008E7020008AC
:10009000E7020008E7020008E7020008A9210008BB
:1000A000E7020008E7020008E7020008E70200088C
:1000B0007D3B0008E7020008E7020008E7020008AD
:1000C000E7020008E7020008E7020008E70200086C
:1000D000E7020008E7020008E7020008E70200085C
:1000E000E7020008E7020008E702000800F002F853
:1000F00000F090F80AA090E8000C82448344AAF132
:100100000107DA4501D100F085F8AFF2090EBAE82F
:100110000F0013F0010F18BFFB1A43F0010318473B
:100120003C7A00005C7A0000103A24BF78C878C19D
:10013000FAD8520724BF30C830C144BF04680C60ED
:10014000704700000023002400250026103A28BF35
:1001500078C1FBD8520728BF30C148BF0B60704739
:100160006E2900F0D382702900F02586662906F0FA
:100170006C83652906F06983672906F06683612927
:1001800006F0658303681B0A28BF41F080016929D6
:1001900000F08082642900F07D82752900F07A8267
:1001A0006F2900F0B285782900F0F185E92900F087
:1001B0004D85E42900F04A85F52900F04785EF29AF
:1001C00000F0AF85F82900F0F0850368DB0928BF4F
:1001D00041F08001632901F06780732901F06C8090
:1001E000E32901F07780F32901F07C80002070473B
:1001F0001FB500F0EBFD04000020002105F0C0FA5F
:10020000401C60600020002105F0A4FAE0601FBDE2
:1002100010B510BD01F000F91146FFF7E9FF03F03A
:100220004FFF01F027F903B4FFF7F2FF03BC01F021
:100230002BF90000224B19680868B0E8F00F80F332
:100240000988BFF36F8F4FF0000080F311884EF0E4
:100250000D0E70470000000006480068006880F33B
:10026000088862B661B6BFF34F8FBFF36F8F00DFB0
:1002700000BF00BF08ED00E0EFF30980BFF36F8F10
:100280000F4B1A6820E9F00F106008B54FF0BF005F
:1002900080F31188BFF34F8FBFF36F8F05F066F8BF
:1002A0004FF0000080F31188BDE808401968086825
:1002B000B0E8F00F80F30988BFF36F8F704700BF7D
:1002C00054000020EFF30580704700000948804784
:1002D00009480047FEE7FEE7FEE7FEE7FEE7FEE728
:1002E000FEE7FEE7FEE7FEE704480549054A064B40
:1002F000704700001D3B0008ED000008E8450020A5
:10030000E84B0020E8470020E84700201CB50C46D9
:10031000064B7B4469460090204600F020FC0446D2
:100320000020694600F02EFC20461CBD6F0800002E
:100330000FB41CB5084B06AA7B446946009005988B
:1003400000F00DFC04460020694600F01BFC20462E
:100350001CBC5DF814FB0000490800002DE9F05FAB
:10036000894604464FF0000ADFF874B1FB44C0F838
:1003700020A02046E1688847002874D0252806D0B0
:10038000D4E901219047206A401C2062F1E7002651
:100390005F462046E16888472028054607DB312D67
:1003A00005D2781910F8200C08B10643F1E7B00720
:1003B00001D526F00406C4F81CA00027C4F818A034
:1003C0002A2D09D0284603F031FE38B304EB870804
:1003D000303DC8F8185019E059F8041B204604EBCA
:1003E00087029161E1688847012F054618D1E069CD
:1003F000002820DA26F020061DE0D8F8180000EBCF
:10040000800005EB40003038C8F818002046E1684D
:100410008847054603F00AFE0028EED1012F0AD0D6
:100420002E2D08D12046E16888477F1C0546022F03
:1004300046F02006C4DBA069002803DA404246F0FB
:100440000106A061F00701D026F010066C2D0BD03C
:10045000682D09D04C2D39D06A2D35D0742D35D06A
:100460007A2D33D016E038E0E1682F4620468847E1
:10047000B842054609D16C2F26D04FF48060E16860
:10048000064320468847054604E06C2F1AD04FF4F7
:10049000807006430DB3A5F14100192802D820351C
:1004A00046F400664A462946204626604E46FFF737
:1004B00057FE80B101280BD0F61D26F0070000F191
:1004C000080956E74020E4E78020D8E70020D6E777
:1004D00006F104094DE7284652E7206ABDE8F09F7F
:1004E0005C7600004FF0000200B513469446964635
:1004F000203922BFA0E80C50A0E80C50B1F1200137
:10050000BFF4F7AF090728BFA0E80C5048BF0CC0E4
:100510005DF804EB890028BF40F8042B08BF704742
:1005200048BF20F8022B11F0804F18BF00F8012BB4
:10053000704700004FF0013C50F8042B51F8043B89
:100540009A4221D1A2EB0C03934313EACC1317D1A7
:1005500050F8042B51F8043B9A4215D1A2EB0C033E
:10056000934313EACC130BD150F8042B51F8043BFE
:100570009A4209D1A2EB0C03934313EACC13DBD0CC
:100580004FF00000704700BFD01A01BAB1FA81F1F4
:1005900001F0180122FA01F0CB40C1F12001DBB2D9
:1005A000C0B2C01A2CFA01F3D11A914311EAC31157
:1005B000E6D1704770477047704710B500F00AFCED
:1005C000006810BD10B5044600F004FC046010BDC6
:1005D00070B5044685690068C10601D5302600E083
:1005E0002026C00707D070BDD4E9012130469047CE
:1005F000206A401C20626D1EF6D570BD70B50446A1
:1006000085690078C00707D170BDD4E90121202099
:100610009047206A401C20626D1EF6D570BD0968A7
:100620004A0501D540B27047C905FCD500B27047F4
:1006300009684A0501D5C0B27047C905FCD580B22A
:10064000704770B50C460546012A05D0287880060B
:1006500000D5EA69002302E0012305E05B1C934218
:1006600002D2E05C0028F9D1A869E618C01AA86196
:10067000286A184428622846FFF7AAFF04E0D5E953
:10068000012114F8010B9047B442F8D32846FFF734
:10069000B5FF70BD2DE9F0410646002410687529AC
:1006A000314616A510D0FFF7BAFF002802DA404203
:1006B00013A507E031688A0701D512A502E04907B2
:1006C00004D511A5012401E0FFF7B2FF00210A22A1
:1006D00006F1240709E0B0FBF2FCB0FBF2F302FBE9
:1006E0001C00303078541846491C0028F3D12346AA
:1006F0002A463046BDE8F04100F0B5BB00000000DE
:100700002D0000002B00000020000000116802688E
:10071000006A530501D508700AE0D30501D50880A9
:1007200006E0130603D5C217C1E9000200E0086025
:100730000120704770472DE9FF4F0C461E464FF0D1
:10074000FF378BB0D2E90001DDF860800A908A465D
:10075000C1F30A5505B93D46002108464FF0000097
:10076000BAF1000F00F4400005DA00EB80004FF40E
:10077000400101EA50004FEA9059B9F1010F00DD44
:10078000B9460A9850EA4A000ED044F61050A5F235
:10079000FF3545432F14B8F1000F1ED07542291EB6
:1007A0001EDDC9F100021CE0B8F1010F4FF000009E
:1007B00001D0302103E0F24305E02154401CB04257
:1007C000FBDB30460022002121540B99C1F8088040
:1007D000C1E900200FB0BDE8F08FBD1B6D1CDEE746
:1007E0004A4600DA694206A800F080FD06AB93E8AD
:1007F000070003AB83E8070050460A9900F04BFE60
:100800008DE80700A0F500501F3800900398002DD8
:100810000ADD42F21F014A460844002303A903905F
:10082000684601F0B4F809E0A0F500504A461F38C8
:10083000002303A90390684601F0BEF88DE8070085
:100840000004000C03D04FF0FF30410800E01046D8
:10085000B8F1000F03D00022009215461EE0751E6D
:1008600005D400F0BBFA303262556D1EF9D5B3469F
:100870000122084302D000227F1C04E020783028A7
:1008800001D100227F1E002A099784D01DE0112D7E
:1008900007DA00F0A3FA303262556D1C50EA01020B
:1008A000F5D1084302D00098C8B10EE00021681EBF
:1008B00005E0235C625C63542254401E491C814263
:1008C000F7DBAB46A81B401E0990002004F80B0084
:1008D0000B98099AC0F80880C0E9002B7AE7112626
:1008E0004FF0000857E72DE9F04F88460446D21D27
:1008F00022F0070191B0D1E90001CDE90A0103F02E
:100900000CFB02460B98C00F01D02D2007E0206899
:10091000810701D52B2002E0202101EAC000032A33
:10092000099001D0072A05DB03464146204600F026
:1009300071FC0BE12078800601D5E06900E006201B
:10094000B8F1650F814606D0B8F1660F18D0B8F13E
:10095000670F70D131E00020B9F1110F009001DB79
:10096000112301E009F101030AAA01A90CA8FFF76C
:10097000E2FEDDE90C70002609F10105834647E03F
:1009800001204B4600904FF000470AAA01A90CA88D
:10099000FFF7D1FEDDE90DB00C995D46002610B9D8
:1009A00009F101000D18B9EB050003D4C0F1FF36C1
:1009B00009F10105A5EB09002BE0B9F1010F01DAFE
:1009C0004FF001090020B9F1110F0090484601DDF8
:1009D000112300E003460AAA01A90CA8FFF7ABFE09
:1009E000DDE90C704D4600268346207800070AD4C6
:1009F000AB4500DA5D4601A8012D04DD411911F86F
:100A0000011C302907D04F4502DA17F1040F04DA30
:100A1000012082460FE06D1EEEE7002F02DCED1B89
:100A20003E4403E0781CA84200DD7D1CB81B00F1A9
:100A3000010A4FF000472078000703D4AA4501DBE4
:100A40004FF0FF3A0021B7F1004F0DF143088DF848
:100A5000431024D002202B23002F01DA7F422D23C4
:100A60000A21021EA0F1010000DC5FB197FBF1FC3E
:100A700097FBF1F201FB1C7C17460CF1300C08F8D7
:100A800001CDEEE7A8F1010003702188090501D529
:100A9000452100E06521A0F1010800F8011C09983A
:100AA0000FA9A1EB0807FF1D00B10120411901EBBF
:100AB000EA70A1693844081A401EA0612078C00677
:100AC00002D42046FFF784FD099828B1D4E901211A
:100AD0009047206A401C20622078C00622D520461C
:100AE000FFF776FD1EE0002E04DBB34502DD01A812
:100AF000805D00E03020D4E901219047206A401C4D
:100B00002062761CAAF101005FEA000A0AD100F017
:100B10005DF9C0680168405CD4E901219047206A12
:100B2000401C2062281EA5F10105DCDC07E0D4E9A9
:100B3000012118F8010B9047206A401C2062381EE2
:100B4000A7F10107F3DC2046FFF758FD032011B0A1
:100B500041E6000001694A1C02610878704700B54F
:100B60008FB0CDE901310021059105497944CDE9E6
:100B7000031011466846FFF7F1FB0FB000BD0000FF
:100B8000E5FFFFFF0A6802F8010B0A6070470000EA
:100B90002DE9FF5F15468A460446DFF8AC80F8442D
:100BA0000027D8E900103E46CDE9001010E03AF8E1
:100BB00016106A4602A800F00BFC411C07D02178F1
:100BC000890603D5E269391891420DD80744761C8D
:100BD0002078800602D5E069B84205DDAE42E6DB4A
:100BE0003AF816000028E2D1A069C01BA061204697
:100BF000FFF7EEFCD8E90010CDE90010002017E067
:100C00003AF818106A4602A800F0E2FBB0F1FF3F84
:100C100081460BD000250DF1080B05E0D4E9012138
:100C20001BF8050090476D1C4D45F7D308F10100F6
:100C3000B0428046E4DB206A384420622046FFF759
:100C4000DDFCBDE8FF9F0000C66E00002DE9F0410D
:100C50008046D21D22F007020025D2E90002F529C4
:100C600015A614D0011E72F1000106DA0023D0EBA4
:100C7000030063EB020211A608E0D8F800108B070E
:100C800001D50FA602E0490701D50EA601251146A0
:100C9000002408F1240704E000F0A0F830323A55AF
:100CA000641C50EA0102F7D12B46324621464046E9
:100CB000BDE8F04100F0D7B8000000002D000000B2
:100CC0002B0000002000000030B4002100F12404BB
:100CD00008E002F00705D208303542EA4372DB082B
:100CE0006554491C52EA0305F3D10468002310A29D
:100CF000250707D5A40600D421B1C46901230DA29C
:100D0000641EC46130BC00F0AEB810B50446214684
:100D10001068FFF78DFC02462046BDE81040002316
:100D2000D2E7D21D22F00701D1E90023CCE7000071
:100D30000000000030000000F0B40D4601880905F5
:100D400002D5214C7C4402E01F4C7C440E3400212F
:100D500000F1240608E002F00F071209E75D42EAFD
:100D600003721B097754491C52EA0307F3D1027836
:100D70000023120704D5702D06D009B102231134C7
:100D80002246F0BC00F06FB801231034F8E770B5CC
:100D900004460D4621461068FFF74AFC02462946E4
:100DA0002046BDE870400023C6E7D21D22F00703AD
:100DB000D3E90023C0E70368126843F0200303600F
:100DC0000823C3610023B7E7286D0000004870477F
:100DD000A8450020004870478845002030B5B0F194
:100DE0000A024FEA900E71F100034EEA817EB0EBE9
:100DF0000E0061EB91014FEA101E4EEA017E10EBEE
:100E00000E0041EB11114FEA102E4EEA016E10EB6D
:100E10000E0041EB11214FEA104E4EEA014E10EB4D
:100E20000E0041EB1141401841F100014FEAD000A2
:100E300040EA41704FEAD10110EB80054FEA81048E
:100E400044EA907444EB01046D1944EB0404521B12
:100E5000A3414FF0000348BF0A3200D530BD401C0B
:100E600041F1000130BD2DE9F0470D46994692460B
:100E7000044600F124080168880604D5E06921F0E1
:100E80001001216000E00120A84201DD471B00E0C5
:100E90000027A1697A1902EB0900081AA0612078DD
:100EA000C00602D42046FFF793FB002608E0D4E9F1
:100EB00001211AF806009047206A401C761C206227
:100EC0004E45F4DB2078C0060AD52046FFF780FBAC
:100ED00006E0D4E9012130209047206A401C2062BE
:100EE000381EA7F10107F4DC07E0D4E9012118F866
:100EF00005009047206A401C2062281EA5F10105CC
:100F0000F3DC2046FFF77AFB2078000602D50220AA
:100F1000BDE8F0870120FBE72DE9F04F04460D46C0
:100F2000D21D22F0070089B0D0E900974846394623
:100F300002F0F3FF0246F80F01D02D2307E02068EE
:100F4000810701D52B2302E0202101EAC0038DF89F
:100F500020300BB1012000E00020032A824601D09E
:100F6000072A04DB2946204600F054F93FE12078A7
:100F7000800601D40D2500E0E569C7F30A560D2D62
:100F800049DA00214FEA175B08464FF00000002FB6
:100F900000F4400007DA00EB80004FF4400100EB62
:100FA000D07001EA60008115012901DD4FF0FF31A9
:100FB00000224FEA850CBCF1180F06D31346ACF1A2
:100FC00018004FF08052C24003E04FF4801323FA20
:100FD0000CF30CF10C0CBCF1200F04D3ACF1200C81
:100FE00009FA0CF001E007FA0CF000294FF0004874
:100FF00001DD18B90FE00ED140450CD319EB020901
:101000005F4121B9404502D19F4329EA0209BBEB68
:10101000175F00D0761C2088000502D57B487844F5
:1010200002E07A487844193808AA302302F80A30D6
:10103000037C0AF10101002E0AF1020A53546A46A8
:1010400002DC4FF0300101E04FF031014FF00108B8
:101050008DF8001002D0A6F2FF3603E059EA4701EE
:1010600000D06B4E002D02DC2178090704D54FF02B
:1010700002082E218DF80110C44600210BE0C7F3B1
:1010800003433F01C35C491C6D1E02F8083005296B
:1010900008F1010801DA002DF1DC00210CE000EB81
:1010A0001973491C1B786D1E082902F808304FEA95
:1010B000091908F1010801DA002DF0DC21688B061E
:1010C00002D516E0A8F10108E04505DD02EB0803B2
:1010D00013F8013C302BF5D0B8F1000F09DD02EB1D
:1010E000080313F8013C2E2B03D1090701D4A8F102
:1010F0000108002D05DD3E2102F808106D1E08F1E3
:101100000108407C002E02F8080008F1010804DA0A
:101110002D20764202F8080002E02B2002F8080099
:101120000A214FF47A70864208F101080BDB96FB26
:10113000F0F3303302F8083096FBF0F308F10108C1
:1011400000FB136601E0642E0CDB642096FBF0F3D9
:10115000303302F8083096FBF0F308F1010800FB89
:10116000136601E00A2E06DB96FBF1F0303002F840
:10117000080008F1010896FBF1F001FB1060303027
:1011800002F80800A16908F1010808EB050202EB6A
:101190000A00081AA0612078C00602D42046FFF792
:1011A00017FA216A08AE01EB0A00206204E0D4E9D4
:1011B000012116F8010B9047BAF1010AF7D2207805
:1011C000C00602D52046FFF703FA6E4609E016F87E
:1011D000010B3E280FD0D4E901219047206A401C22
:1011E0002062B8F10108F2D22046FFF707FA09B0F1
:1011F0000320BDE8F08F206A2844206203E0D4E990
:101200000121302090476D1EEBD3F8E7916A000072
:1012100002FCFFFF2DE9F0411F460446032601684A
:10122000072A01F4006004DB08B116A505E016A545
:1012300003E008B115A500E015A521F0100020601D
:10124000A069C01EA0610FB1401EA0612046FFF73B
:10125000BFF94FB1D4E9012138469047206A401CBC
:101260002062C01C206206E0206AFAE7D4E901216E
:1012700015F8010B9047761EF8D22046FFF7BEF90D
:10128000BDE8F0814E414E006E616E00494E460051
:10129000696E660010B5436913B1AFF3008001E0D9
:1012A000FFF7CFF9012010BD127800F124010A7078
:1012B00000224A700122EDE711684FF0FF32E9E7A2
:1012C00010B5436913B1AFF3008001E0FFF760FC94
:1012D000012010BD128800F1240182840022C28402
:1012E0000122EDE711684FF0FF32E9E72DE9F04701
:1012F000814616468AB0354878440DC88DE80D0001
:1013000032487844801C03AC0DC884E80D0041F6D7
:101310009B300844372190FBF1F290FBF1F5A5F1E9
:10132000800501FB12041B3C02D56442012000E051
:101330000020DFF898A080460027FA44AAF1BE0AF0
:101340000EE0E0070AD03246684607EB470101236A
:101350000AEB810100F030FB8DE8070064107F1C70
:10136000002CEED1194F7F44AE3F19E0E80715D0AD
:1013700007EB04100DF1180A90E80E008AE80E0041
:10138000C068F04201D1981908903246012306A99D
:1013900003A800F011FB03AB83E807006D10641C89
:1013A000002DE3D14FF0010332466946B8F1000F3A
:1013B00003A802D000F0EBFA01E000F0FDFAC9E961
:1013C0000001C9F808200AB0BDE8F08748680000AD
:1013D00070B516460C46054600F044F8036893F8CD
:1013E0000101012806D0FF2C0FD8185D68B101203B
:1013F0002C7070BDD3F807013246214603F2071363
:1014000003442846BDE8704018474FF0FF3070BDD8
:1014100000487047884500207546FFF7F9FFAE4643
:1014200005006946534620F00700854618B020B5F0
:10143000FEF75AFFBDE820404FF000064FF00007CE
:101440004FF000084FF0000B21F00701AC46ACE86C
:10145000C009ACE8C009ACE8C009ACE8C0098D46D9
:101460007047000010B5FFF7B1FC001D10BD00BFB4
:101470001143000010B50446AFF300802046BDE8DC
:101480001040FEF7D0BE000001491820ABBEFEE7B9
:101490002600020070475FEA400C08BF91F0000F81
:1014A0004FEA8C234FEAC12243EA51514FEA1C50C4
:1014B00018BF00F5F0404FEA300018BF41F000417E
:1014C0005FEA6C5C00F02980BCF1FF3F08BF40F090
:1014D00080407047130C06BF12044FF0100C4FF001
:1014E000000C130E04BF12020CF1080C130F04BF02
:1014F00012010CF1040C930F04BF92000CF1020CCA
:10150000D30F04BF52000CF1010C11464FF0000242
:10151000A0F11F00A0EB0C00704711F0004F08BFB6
:10152000704731F000413FF4D5AF0B0C06BF090402
:101530004FF0100C4FF0000C0B0E04BF09020CF121
:10154000080C0B0F04BF09010CF1040C8B0F04BF36
:1015500089000CF1020CCB0F04BF49000CF1010C07
:10156000CCF12003A0EB0C0022FA03F302FA0CF2F8
:1015700041EA030100F10100704720F07F4C80EA4E
:10158000030023F07F47ACEB070303F57C5300F027
:10159000004003F1FF032DE980494FEA154B09B4E0
:1015A0004FEA144325EA0B4E24EA03480FF20426BF
:1015B00006EB132749083E785FEA320203FB066711
:1015C000C7F5000707FB06F64FEA54374FEAD64641
:1015D00006F1020607FB066CCCF1005C4FEA1C47E3
:1015E0002CEA074C07FB06F40CFB06F504EB15464A
:1015F0004FEA961634BF00204FF000404FEAD13733
:1016000006FB07FC4FEA1C4C0CFB0BF7D21B03FB41
:101610000CF761EB07010CFB0EF7B0EB074072EB28
:1016200017420CFB08F734BFA2EB0742B2EB0742AC
:1016300061EB17414FEA0C444FEA910706FB07FCA8
:101640004FEA1C4C0CFB0BF7B0EBC74072EB573268
:1016500003FB0CF734BFA2EBC742B2EBC74261EB0E
:1016600057310CFB0EF7B0EBC70072EB57720CFB57
:1016700008F734BFA2EBC702B2EBC70261EB5771A8
:10168000039F4FEA816141EA921104EBCC044FEAD7
:10169000D1374FEA826206FB07FC42EA90124FEA1A
:1016A00080604FEA1C4C0CFB0BF7D21B03FB0CF7C2
:1016B00061EB07010CFB0EF7B0EB074072EB174232
:1016C0000CFB08F734BFA2EB0742B2EB074261EB19
:1016D00017414FEA8C554FEA910704EB9C2406FB17
:1016E00007FC4FEA1C4C0CFB0BF7B0EBC74072EB4E
:1016F000573203FB0CF734BFA2EBC742B2EBC74231
:1017000061EB57310CFB0EF7B0EBC70072EB577271
:101710000CFB08F734BFA2EBC702B2EBC70261EBC8
:10172000577115EB4C254FEA816141EA92114FEA5E
:1017300082624FEAD13742EA901206FB07FC44F17D
:1017400000044FEA80604FEA1C4C0CFB0BF7D21BE5
:1017500003FB0CF761EB07010CFB0EF7B0EB074046
:1017600072EB17420CFB08F734BFA2EB0742B2EB57
:10177000074261EB174115EB1C154FEA813141EA35
:1017800092414FEA823242EA90424FEA80304FEA79
:101790000C7644F1000448EA03434EEA0B484FF04C
:1017A000000EB2EB080C71EB030724BF624639460A
:1017B0004EEB0E0E4FF0000B0018524149414BEB1F
:1017C0000B0BB2EB080C71EB03077BF1000B24BF92
:1017D000624639464EEB0E0E4FF0000B0018524198
:1017E00049414BEB0B0BB2EB080C71EB03077BF1A0
:1017F000000B24BF624639464EEB0E0E51EA02073B
:1018000018BF46F0010616EB0E7655F1000254F1B2
:10181000000103D5BDE88901BDE80088BDE8890164
:10182000BDE80048B619524141EB0101A3F10103A3
:10183000704780807F7E7D7C7B7A7978777676753D
:101840007473727171706F6E6E6D6C6C6B6A6A69B5
:101850006868676666656464636362616160605F4F
:101860005F5E5E5D5D5C5C5B5B5A5A5959585857C8
:101870005756565555555454535352525251515030
:1018800050504F4F4F4E4E4D4D4D4C4C4C4B4B4B83
:101890004A4A4A49494948484847474747464646C9
:1018A0004545454444444443434343424242424104
:1018B0004141002B9C4630D477002BD01CB54FEA19
:1018C000370703B44FF010004FF01001BAF1000FCA
:1018D00006D0BCF1000FDCBF40F0080040F008016A
:1018E0004FF000000FBCBDE810400BF1010BBBF145
:1018F000010F08BF5FEA170722BF12F1010211F1C1
:1019000001014FF0004143F1000300F0004043EAC1
:1019100000007047F9D35708D0E746EA064613F1AE
:10192000400F4FEA16461FDD13F1200FDFBF1643AD
:101930000A46002120335B42BED0C3F1200746EAAD
:10194000064602FA07F74FEA164646EA0706C3F1CB
:10195000200722FA03F201FA07F721FA03F14FF008
:10196000000342EA0702A7E746EA020646EA0646FD
:101970004FEA164646EA0106BCBF46EA0646360C62
:101980004FF000034FF000024FF0000194E72DE903
:10199000804C9A46934670B491E8380007C831EA03
:1019A000400C48BF34EA430C03D5FFF7E6FDFFF7D0
:1019B00080FFF0BCBDE8008C2DE9804C9A46934630
:1019C00070B491E8380007C810F0804F08BF13F0DA
:1019D000804F03D100F005F8FFF76BFFF0BCBDE8C6
:1019E000008C20F07F4780EA030023F07F4C07EB58
:1019F0000C03A3F57C5300F00040A3F1FE0392F02A
:101A0000000F00F0B38095F0000F00F077802DE913
:101A100001494FEA11404FEA144621EA004800FB11
:101A200006FC24EA064708FB06F607FB08F800FB5D
:101A300007F718EB06484CEB164C4FEA124B18EB25
:101A400007484FEA15464CEB174022EA0B4E0BFBBA
:101A500006FC25EA06470EFB06F607FB0EFE0BFB0F
:101A600007F71EEB064E4CEB164C4FF000061EEB34
:101A7000074E4CEB174B18EB0B0840F1000018EB2E
:101A80000E0B58EB000840F100008F1A4FF00001D8
:101A90003CBFC943661B14BFB5EB040C00213CBF1F
:101AA000C943F61B4FEA17444EEA8E0E27EA044557
:101AB0004FEA1C4704FB07622CEA074C05FB07F7BB
:101AC0000CFB05F604FB0CFC16EB074642EB174239
:101AD00016EB0C4642EB1C421BEB060658EB0202CF
:101AE000414146EA9E0601D5BDE80189B619524139
:101AF00041EB0101A3F10103BDE801894FEA14455F
:101B00004FEA114724EA054621EA074C05FB07F492
:101B100006FB07F70CFB06F105FB0CFC11EB07417C
:101B200044EB17444FEA124711EB0C4144EB1C44C1
:101B300022EA074C05FB07F206FB07F70CFB06F64B
:101B400005FB0CFC16EB074642EB174216EB0C4666
:101B500042EB1C456A1854F1000148BF7047B619A2
:101B6000524141EB0101A3F10103704795F0000FD1
:101B700037D04FEA11424FEA144721EA024624EADD
:101B8000074C02FB07F106FB07F70CFB06F402FB10
:101B90000CFC14EB074441EB17414FEA154714EBDB
:101BA0000C4441EB1C4125EA074C02FB07F506FB00
:101BB00007F70CFB06F602FB0CFC16EB074645EBA1
:101BC000174516EB0C4645EB1C42121951F100016A
:101BD00048BF7047B619524141EB0101A3F101031F
:101BE00070474FEA14454FEA114724EA054621EAB7
:101BF000074C05FB07F106FB07F70CFB06F24FF05D
:101C0000000605FB0CFC12EB074241EB174112EBFF
:101C10000C4251EB1C4148BF7047921841EB010147
:101C2000A3F10103704721B1826842F00102826092
:101C300003E0826822F001028260704701460020C2
:101C40008A6802F004020AB1012000E00020704717
:101C50000146C86C80B270470246002013680B40F2
:101C60000BB1012000E000207047014600208A6887
:101C700002F008020AB1012000E0002070470000D5
:101C800070B504460D462B4601222146084800F057
:101C900039F80121064800F096F800BF02210448F7
:101CA000FFF7DAFF0028F9D00148FFF7D1FF70BD38
:101CB0000024014030B502460020002350680F4C3C
:101CC00020400D790C6844EA052420435060906858
:101CD0000B4C2040D1E902542C434D7944EA450491
:101CE00020439060D06A20F470000C7C641EE4B243
:101CF000234340EA0350D06230BD0000FFFEF0FFF6
:101D0000FDF7F1FFF0B504460D4600200021092D36
:101D100011DDE068A5F10A0606EB4607072606FA7C
:101D200007F18843A5F10A0606EB460603FA06F119
:101D30000843E0600CE0206905EB4507072606FA3A
:101D400007F1884305EB450603FA06F108432061D5
:101D5000072A0FDA606B561E06EB86071F2606FA67
:101D600007F18843561E06EB860605FA06F108437E
:101D7000606322E00D2A0FDA206BD61F06EB860780
:101D80001F2606FA07F18843D61F06EB860605FADA
:101D900006F10843206310E0E06AA2F10D0606EBAD
:101DA00086071F2606FA07F18843A2F10D0606EB07
:101DB000860605FA06F10843E062F0BD816841F04D
:101DC00008018160704721B1826842F4A0028260FC
:101DD00003E0826822F4A00282607047816841F0CB
:101DE000040181607047000000B585B00121480200
:101DF00001F08CFD4FF4004001F06CFD00200090DC
:101E000003904FF46020029000208DF805008DF8BB
:101E1000040001208DF8100069460D48FFF74AFFC5
:101E200001210B48FFF7FFFE0948FFF7C7FF00BF7E
:101E30000748FFF71AFF0128FAD00548FFF7CEFF41
:101E400000BF0348FFF7FAFE0128FAD005B000BD35
:101E5000002401400DE02021064801F0A9FF0128DF
:101E600004D1044802F030F803490870322003F02E
:101E700025FAF0E7003801401F0000201FB51822A6
:101E80004FF40071124802F007F948224FF48061C4
:101E90000F4802F001F90121880301F037FD4FF4EA
:101EA000165000900020ADF80400ADF80600ADF823
:101EB00008000C20ADF80A000020ADF80C006946BF
:101EC000044801F083FF0121024801F065FF1FBDB6
:101ED000000801400038014000BFFEE71EE0104846
:101EE0000078B0B10F48007898B100224FF48051CB
:101EF0000D4800F02BFA4FF4FA7003F0DFF90122DD
:101F00001103094800F022FA4FF4FA7003F0D6F9F1
:101F100004E001221103044800F018FADFE7000092
:101F2000BC000020B8000020000801402BE003F0B6
:101F300015FA1549154800F0D4F803F05DFB124876
:101F4000007813490978884206DD12A001F0AAFF43
:101F500001201349087002E00020114908700B4865
:101F6000007810490978884206DD0FA001F09AFF39
:101F700001201049087002E000200E4908704FF45B
:101F80007A7003F09BF9D2E71C0000201D000020AE
:101F90009F000020D7A2D2E2BBF0D4D60A000000F6
:101FA00022000020A0000020D7A2D2E2CBAED4D6DF
:101FB0000A0000002300002010B5282000F042F89D
:101FC000002404E0601CC4B2012000F023F80121C9
:101FD0000F4800F0AEF908B1642CF3DB642C01DB90
:101FE000012010BD002404E0601CC4B2012000F0F8
:101FF00011F80121064800F09CF908B9642CF3DBC4
:10200000642C01DB0120ECE700240020E9E700005C
:10201000000C014010B5044600214FF0804001F053
:102020002BFE0121880701F0F8FD00BF4FF0804032
:1020300001F0FFFDA042F9DB00214FF0804001F0EC
:10204000ECFD10BD38B504460120ADF800008DF858
:1020500002008DF803400121042001F057FC69467D
:10206000014800F0DBF838BD000C014010B5002439
:1020700004E0601CC4B20120FFF7CCFF012110482E
:1020800000F057F908B1642CF3DB002404E0601C75
:10209000C4B20120FFF7BEFF0121094800F049F951
:1020A00008B9642CF3DB2820FFF7B4FF01210448B2
:1020B00000F03FF908B1012010BD0020FCE700004E
:1020C000000C014070B50024002506E06006040EF7
:1020D000FFF7CCFF0443681CC5B2082DF6DB204691
:1020E00070BD7CB505460E4600F028F8FFF764FF8A
:1020F000F8B9002405E0FFF7E5FF0DF80400601CC7
:10210000C4B2052CF7DB9DF800009DF801100844CF
:102110009DF8021008449DF8031008449DF804102F
:10212000884208D19DF8000028709DF802003070A8
:1021300001E001207CBD0020FCE7000010B510226A
:102140000121094801F0A8FF0021074800F0FCF830
:1021500044F62060FFF75EFF0121034800F0F4F829
:102160001E20FFF757FF10BD000C01407047000014
:1021700010B5042000F026F8012804D101221146F0
:10218000014801F06AFD10BD0008004010B51020A4
:1021900000F018F8012804D101221146014801F08D
:1021A0005CFD10BD0008004010B5402000F00AF8AA
:1021B000012804D101221146014801F04EFD10BD55
:1021C0000008004001460020034A12680A400AB194
:1021D000012000E0002070471404014013E04FF498
:1021E0000061094800F0A5F830B908A001F05AFED6
:1021F00001200949087002E00020074908704FF4E7
:10220000967003F05BF8EAE700080140D7A2D2E23B
:10221000BBF0D4D60A000000200000202DE9F041D8
:10222000024600250026002000230024002791F804
:1022300003C00CF00F0591F803C00CF0100CBCF1BA
:10224000000F03D091F802C04CEA050591F800C0D8
:10225000BCF1000F31D0146800202BE04FF0010CCE
:102260000CFA00F3B1F800C00CEA03069E4220D13C
:1022700083004FF00F0C0CFA03F7BC4305FA03FC84
:102280004CEA040491F803C0BCF1280F06D14FF0CA
:10229000010C0CFA00FCC2F814C00AE091F803C06B
:1022A000BCF1480F05D14FF0010C0CFA00FCC2F84C
:1022B00010C0401C0828D1D31460B1F800C0BCF194
:1022C000FF0F34DD546800202EE000F1080C4FF0C1
:1022D000010808FA0CF3B1F800C00CEA03069E42AC
:1022E00021D183004FF00F0C0CFA03F7BC4305FA21
:1022F00003FC4CEA040491F803C0BCF1280F05D19B
:1023000000F1080C08FA0CF8C2F8148091F803C028
:10231000BCF1480F07D100F1080C4FF0010808FA92
:102320000CF8C2F81080401C0828CED35460BDE8D9
:10233000F0810246002093680B400BB1012000E0C1
:102340000020704741617047016170470AB1016127
:1023500000E04161704700BFFEE7000050E040210F
:102360002848FFF7E6FF01280BD1642002F0A6FF02
:1023700040212448FFF7DDFF01283ED122490870A3
:102380003BE080211F48FFF7D4FF01280CD16420D7
:1023900002F094FF80211B48FFF7CBFF01282CD1CE
:1023A00002201949087028E04FF480711548FFF7A2
:1023B000C0FF01280DD1642002F080FF4FF480712E
:1023C0001048FFF7B6FF012817D103200E49087007
:1023D00013E04FF400710B48FFF7ABFF01280CD15D
:1023E000642002F06BFF4FF400710648FFF7A1FF75
:1023F000012802D10420044908700A2002F05EFF7F
:10240000ADE70000000C01401F00002038B5054674
:102410000C46ADF8004001208DF802001C208DF81C
:10242000030001210C2001F071FA69462846FFF7EC
:10243000F5FE38BD10B540210848FFF7E7FF8021C1
:102440000648FFF7E3FF4FF480710448FFF7DEFF13
:102450004FF400710148FFF7D9FF10BD000C014097
:102460001EE002F07BFF00F031F80E49088000F01A
:1024700041F80D49086003F0BFF80A480088B0F53C
:10248000167F06DD09A001F00DFD01200B49087043
:1024900002E00020094908704FF4967002F00EFF28
:1024A000DFE700001400002018000020D7A2D2E2CD
:1024B000C8BCC6F8A3ACD1CCCEED0A0021000020E8
:1024C00010B505210846FFF7DBFB10BD70B50024F1
:1024D000002508E0FFF7F4FF044441F28830FFF7DD
:1024E00099FD681CC5B20A2DF4DB0A20B4FBF0F498
:1024F000A0B270BD2DE9F04F89B0002500270FE094
:10250000FFF7DEFF834604F04BF88046294603F0D0
:1025100023FF054641F28830FFF77CFD781CC7B2E7
:102520000A2FEDDB2849284603F078FF05462749A6
:10253000284604F049F807464FF08B4103F06EFF40
:102540000446204603F0DCFE0022214BCDE90201C7
:1025500003F0C6FB0746884621461C4804F000F9F4
:10256000834603F0CDFE3A464346CDE9040103F02D
:102570000BFACDE9060103F019F90646DFF854908D
:10258000304603F0BDFECDE90201484603F0B8FE37
:102590000746114A114B03F0A3FBCDE90001DDE929
:1025A000022303F0F1F94FF060420D4BCDE9040135
:1025B00001F046FECDE9060103F0F8F882465046E8
:1025C00009B0BDE8F08F0000000020410000A040ED
:1025D0000000E03FE17AD440A089B0E1E91527404E
:1025E000F0F4E43F08B50121042001F08FF9202028
:1025F000ADF8000000208DF8030069460248FFF79F
:102600000DFEFFF7F1FB08BD0008014000BFFEE72B
:1026100008B50121082001F079F914208DF8030094
:102620004FF44060ADF8000003208DF802006946C9
:102630000448FFF7F3FD4FF440610248FFF784FEC2
:1026400008BD0000000C014010B54FF48061034844
:10265000FFF76FFE0446204610BD0000000C01404D
:1026600010B5012000F046F8012000F037F8FFF720
:10267000EBFF0446002000F031F8204610BD70B595
:10268000054600240DE08021214101EA050000F00B
:1026900031F8012000F022F8002000F01FF8601C43
:1026A000C4B2082CEFDB70BD10B5012000F022F899
:1026B000012000F013F8002000F01CF8002000F0CA
:1026C0000DF810BD10B5002000F014F8012000F046
:1026D00005F8012000F00EF810BD000010B504460A
:1026E00022464FF400610248FFF730FE10BD0000A3
:1026F000000C014010B5044622464FF480610248A8
:10270000FFF724FE10BD0000000C014070470000E0
:1027100070B5002100230F22C47804B3154C24683F
:1027200004F4E064C4F5E064210AC1F10403CA4082
:10273000447804FA03F184781440214309010E4CD3
:102740000678A155047804F01F050124AC400578F3
:102750006D11AD0005F1E025C5F8004109E00478F0
:1027600004F01F050124AC40044D0678761145F8AD
:10277000264070BD0CED00E000E400E080E100E0E8
:1027800002490143024A1160704700000000FA0547
:102790000CED00E018E00D480078072814DA4FF43B
:1027A0007A7002F08BFD0A480078401C08490870D6
:1027B0000846007807490978884205D1072003496F
:1027C0000870002002490870E5E70000940000202E
:1027D0001E000020B400002018E00D48007840B131
:1027E00020210C48FFF7B0FD40210A48FFF7AAFD61
:1027F00007E020210748FFF7A5FD40210548FFF726
:10280000A3FD00F06FF8322002F058FDE5E700006C
:10281000B8000020000C014070B500240EE02146F5
:10282000002000F0C6FE002504E0002001F03CF886
:10283000681CC5B2802DF8DB601CC4B2082CEEDB2E
:1028400070BD10B5FFF7E4FE642001F0F6FBAE208A
:1028500001F014F8D52001F011F8802001F00EF8F5
:10286000A82001F00BF83F2001F008F8D32001F078
:1028700005F8002001F002F8402000F0FFFFA12041
:1028800000F0FCFFC82000F0F9FFDA2000F0F6FFAE
:10289000122000F0F3FF812000F0F0FFCF2000F0C5
:1028A000EDFFD92000F0EAFFF12000F0E7FFDB2088
:1028B00000F0E4FF302000F0E1FFA42000F0DEFF94
:1028C000A62000F0DBFF8D2000F0D8FF142000F0E0
:1028D000D5FFAF2000F0D2FF642001F0AEFBFFF780
:1028E0009BFF10BD30B58BB0FE480078012800D1A9
:1028F00000E00020FB490978022901D1012100E014
:1029000000210843F7490978032901D1012100E09A
:1029100000210843F3490978042901D1012100E08D
:102920000021084310B10020EF490870ED480078FD
:1029300005281CD1ED48006808B9012000E00020FE
:10294000EA4908600020E7490870E8480068012863
:1029500006D1E7480078E74908600720E449087095
:10296000E248006818B9E3480078E1490870DD489A
:102970000078012810D1DE48007868B9FFF74CFFD5
:10298000DD480068C0F10500C0B2D9490870D949D6
:1029900008600020D3490870D2480078022812D17C
:1029A000D348007800280EDDD148007805280ADADF
:1029B000FFF732FF0020CB490870D0490860CC49AE
:1029C0000870CC490860C748007802280CD1C84874
:1029D000007848B9FFF720FF0520C5490870C549B0
:1029E00008600020BF490870BE480078012812D155
:1029F000BF48007805280ED1C148007801280AD1C7
:102A0000FFF70AFF0020BA490870BA490860B549C3
:102A10000870BB490870B3480078012811D1B44848
:102A2000007805280DD1B7480078012809D1FFF7B3
:102A3000F3FE0720AE4908700020AA490870B1498A
:102A40000870AB480078072825D1A64800780128EF
:102A500000D100E00020A3490978022901D1012119
:102A600000E0002108439F490978032901D1012191
:102A700000E0002108439B490978042901D1012184
:102A800000E00021084330B19A4800789849087066
:102A90000020944908709C4800789C4909780843B4
:102AA0009B49097808439B490978084310B10120E4
:102AB000994908609748007858B99548007840B916
:102AC0009248007828B99048007810B900209249BF
:102AD00008609148006828B19048006810B106204D
:102AE000834908707F480078062810D18A4800681A
:102AF00068B18A48006808B9012000E000208749D1
:102B0000086004207A4908700020764908707848E7
:102B1000007800287AD173480078032808D17648D5
:102B20000068401C7449086000206E4908700BE082
:102B30006C480078042807D16F480068401E6E4931
:102B400008600020674908706B480068042808D1B5
:102B5000012073490870002072490870724908709A
:102B60003EE065480068032808D101206E490870DE
:102B700000206C4908706A49087031E05E480068BE
:102B8000022808D1012067490870002066490870B2
:102B90006349087024E058480068012807D161495A
:102BA00008700020604908705D49087018E05248BC
:102BB000006801280ADA00205A4908705A4908704A
:102BC0005749087004204C49086009E00020554925
:102BD000087055490870524908700120464908603C
:102BE00045480068012838DD002350A219462020FE
:102BF00000F066FD4A480078082350A202210090A8
:102C0000002000F020FE4648037800E05FE04CA280
:102C10000221102000F054FD4348007808234EA202
:102C200004210090002000F00EFE3F4803784BA2E4
:102C30000421102000F044FD3A48007808234DA2FA
:102C400006210090002000F0FEFD364803784AA2DD
:102C50000621102000F034FD39E0274800680128E3
:102C600035D1002331A21946202000F029FD2C483F
:102C70000078082338A202210090002000F0E3FD34
:102C80002748037835A20221102000F019FD2648BC
:102C90000078082337A204210090002000F0D3FD23
:102CA0002148037834A20421102000F009FD1D48BA
:102CB0000078082336A206210090002000F0C3FD12
:102CC0001848037833A20621102000F0F9FC0848C8
:102CD0000078012879D1002334A21946202000F081
:102CE000EFFC6CE01F0000201E000020B000002060
:102CF00094000020AC000020A8000020A4000020C8
:102D00009C0000209D0000202000002021000020C9
:102D10002200002023000020B8000020BC0000207A
:102D2000950000209700002096000020E88F9CEF7F
:102D3000BFA5EFBFA5E58D9500000000312E000076
:102D4000E781ABE784B0E79B91E6B58BEFBFA5EFDA
:102D5000BFA5EFBFA5000000322E0000E6B8A9E62F
:102D6000B9BFE5BAA6E79B91E6B58BEFBFA5EFBF6C
:102D7000A5000000332E0000E7839FE99BBEE6B567
:102D800093E5BAA6E79B91E6B58BEFBFA5000000DF
:102D9000342E0000E8AEBEE7BDAEEFBFA5EFBFA585
:102DA000EFBFA5EFBFA5EFBFA5000000E781ABE730
:102DB00084B0E79B91E6B58B0000000005E000239E
:102DC000FDA20321184600F07BFCFE480078022893
:102DD00049D10023FCA21946182000F071FC002301
:102DE000FDA20221184600F06BFC002008233A22C5
:102DF00002210090202000F0EDFB0020F849022382
:102E00000E22CDE900101946382000F0A7FC00235F
:102E1000F4A20421184600F053FC002008233A22B3
:102E200004210090202000F0D5FB00200823EFA211
:102E300004210090382000F006FD00200821022324
:102E4000CDE90010EA4802781946282000F0B3FCCA
:102E5000002008210223CDE90010E6480278042171
:102E6000282000F0A8FCD7480078032831D100239F
:102E7000E1A21946102000F023FC0023E3A2022166
:102E8000184600F01DFC002008233A220221009081
:102E9000402000F09FFB002008210423CDE9001012
:102EA000DE4802880221482000F085FCDC480068EA
:102EB00003F026FA044622460B46DAA103A8FDF7E2
:102EC00037FA0020082303AA0421009000F0BBFC7D
:102ED00000BFBC480078042874D1D4480078012889
:102EE00007D1D3480068401CD14908600020CF4971
:102EF0000870CF480068012829D1CE490870CB4816
:102F00000078032808D1CC480068401DCA490860F1
:102F10000020C64908700BE0C4480078042807D197
:102F2000C5480068401FC44908600020BF490870B8
:102F3000C1480068052802DA5A20BF490860BE4827
:102F400000685A2876DD0520BB49086072E0B84861
:102F5000006802281FD10120B84908700020B54937
:102F60000870B2480078032808D1B5480078401CA2
:102F7000B34908700020AD4908705BE0AB480078A9
:102F8000042857D1AE480078401EAD490870002093
:102F9000A64908704EE0A6480068032820D1012009
:102FA000A84908700020A5490870A04800780328A7
:102FB00009D1A5480078401CA349087000209B490E
:102FC000087037E0A5E099480078042832D19E487F
:102FD0000078401E9C49087000209449087029E040
:102FE0009348006804281AD10120984908700020ED
:102FF000944908708D480078032806D1012094492F
:10300000086000208949087014E088480078042886
:1030100010D100208E490860844908700AE0002021
:103020008A49087087490870844908708149087086
:103030007F4908607F48037886A20021084600F097
:103040003FFB7C48007808210223CDE900107A4834
:1030500000210268502000F0AEFB7648007808237B
:1030600080A200210090602000F0EDFB73480378FF
:103070007EA20221002000F023FB70480078082186
:103080000223CDE900106E4802781946502000F066
:1030900092FB6A480078082372A202210090602007
:1030A00000F0D1FB6748037874A20421002000F0EF
:1030B00007FB6448007808210223CDE9001062482C
:1030C00002780421502000F076FB5E480078082347
:1030D00064A204210090602000F0B5FB5B480378F7
:1030E0006AA20621002000F0EBFA5948006830B1CE
:1030F0005648037869A20621502000F0E1FA5448AE
:10310000006830B95148037867A20621502000F0CA
:10311000D7FA2C48007805284CD14448007801287B
:1031200006D1644908700020634908703F4908705F
:103130003E48007803280AD15E48007838B901205B
:103140005C49087000205C490870384908703748AD
:10315000007804280BD15848007840B90020554920
:1031600008700120544908700020304908702F4829
:103170000078022806D100202C4908704E490870BA
:103180004C49087000234DA21946184600F098FAE1
:103190004848037850A20621002000F091FA4648E2
:1031A00003784FA20621602000F08AFA00230AA2C9
:1031B000022199E0EBE00000E697A0E6988EE78117
:1031C000AB00000094000020E6B8A9E6B9BFE5BA5C
:1031D000A6E79B91E6B58B00E6B8A9E5BAA6000084
:1031E00042690008E6B9BFE5BAA6000025524800CA
:1031F0001C0000201D000020E7839FE99BBEE6B570
:1032000093E5BAA6E79B91E6B58B0000E7839FE9BB
:103210009BBEE6B593E5BAA60000000014000020AE
:1032200018000020252E326670706D001F000020EF
:10323000A400002098000020B40000209900002085
:103240009F0000209A000020A00000209B0000208A
:10325000BC000020E4BC91E79CA0E697B6E997B4D7
:10326000EFBC9A002020202000000000E6B8A9E56D
:10327000BAA6E99888E580BCEFBC9A00E6B9BFE53C
:10328000BAA6E99888E580BCEFBC9A00E68AA5E872
:10329000ADA6E8AEBEE7BDAEEFBC9A00E5BC80EFE0
:1032A000BFA5EFBFA5000000E585B3EFBFA5EFBF49
:1032B000A50000009C0000209D000020E699BAE8CF
:1032C00083BDE5AEB6E5BAADE5AE89E998B2E7B340
:1032D000BBE7BB9F00000000E88F9CE58D950000D8
:1032E000E4BC91E79CA00000184600F0E9F900203A
:1032F00008233A2202210090202000F06BF90020E0
:1033000008210223CDE900105648027819462820EA
:1033100000F051FA0023AFF234120221482000F0ED
:10332000CFF9002008233A2202210090682000F003
:1033300051F9002008210223CDE900104A48027803
:103340001946702000F037FA0023AFF24012042132
:10335000184600F0B5F9002008233A220421009015
:10336000402000F037F94148006802F0C9FF0446E8
:1033700022460B463EA103A8FCF7DAFF00200823F3
:1033800003AA04210090482000F05DFA00BF3A48EB
:10339000007806285DD139480068002841D0002314
:1033A00037A21946184600F08BF93C48007828B13E
:1033B00000233BA20221184600F082F9374800782A
:1033C00028B900233DA20221184600F079F94248AD
:1033D000007842490978084328B1002340A204211B
:1033E000184600F06DF93C48007840B93B48007839
:1033F00028B9002331A20421184600F061F93F48A2
:10340000007828B100233EA20621184600F058F9A2
:103410003A48007828B9002328A20621184600F06F
:103420004FF91648006828B9FFF7F6F93B480078CD
:10343000114908703A48007801280AD1002038491B
:10344000087038490860FFF7E7F9344800780A49FE
:10345000087009480078072801D1FFF7DDF90BB0A3
:1034600030BD00001C0000201D00002018000020BE
:10347000252E32660000000094000020B8000020D5
:10348000EFBFA5EFBFA5E8ADA6E5918AEFBC81EF40
:10349000BC81EFBFA5EFBFA5000000002300002006
:1034A000E6B3A8E6848FE6B0B4E781BEEFBC81EF57
:1034B000BFA5EFBFA5EFBFA500000000EFBFA5EFC0
:1034C000BFA5EFBFA5EFBFA5EFBFA5EFBFA5EFBF9E
:1034D000A5EFBFA500000000220000202000002072
:1034E000E6B3A8E6848FE781ABE781BEEFBC81EF4E
:1034F000BFA5EFBFA5EFBFA5000000002100002081
:10350000E6B3A8E6848FE78783E6B094EFBC8CE748
:10351000839FE99BBEEFBC8100000000AC0000204F
:103520001F000020BC00002008B5002309A2194696
:10353000184600F0C5F800230DA20321184600F03C
:10354000BFF80020082311A20621009000F07BF9AB
:1035500008BD0000E699BAE883BDE5AEB6E5BAADB0
:10356000E5AE89E998B2E7B3BBE7BB9F0000000076
:10357000E8B5A3E4B89CE5ADA6E999A2EFBFA5E73D
:10358000BD97E98791E697BA00000000566572730F
:10359000696F6E2032362E312E30000010B5024693
:1035A000012000E050430B1EA1F10104E1B2F9D16A
:1035B00010BD70B504460D4604F00F0000F05EF932
:1035C000102141EA141000F059F945F0B00000F064
:1035D00055F970BD2DE9F0478146884614461E46D0
:1035E000089F062E22D141464846FFF7E2FF0025FC
:1035F00019E067B1A4F1200101EB41012E4A02EB71
:103600004101495DC943C8B200F04EF909E0A4F197
:10361000200101EB4101284A02EB4101485D00F025
:1036200043F9681CC5B2062DE3DB43E0082E41D107
:1036300041464846FFF7BDFF002515E057B1A4F10C
:1036400020011E4A02EB0111495DC943C8B200F0D6
:103650002BF907E0A4F12001184A02EB0111485DA3
:1036600000F022F9681CC5B2082DE7DB08F1010063
:10367000C1B24846FFF79DFF002519E067B1A4F1EC
:1036800020010E4A02EB011205F10801515CC94309
:10369000C8B200F009F909E0A4F12001074A02EBE1
:1036A000011205F10801505C00F0FEF8681CC5B27B
:1036B000082DE3DBBDE8F0874E6F00085E69000867
:1036C0002DE9FE4F80468A46164699460020029014
:1036D0000027002539E0705D02A9C855781CC7B2E3
:1036E000032F30DB002700240BE004EBC401194A50
:1036F00002EB810002A9FCF71DFF00B90BE0601C82
:10370000C4B204EBC401134A02EB810012A1FCF71E
:1037100011FF0028E9D100BF681C032190FBF1F0E4
:10372000401E08EB001000F0FF0B04EBC400094939
:1037300001EB8000001D022310225146CDE9000953
:10374000584600F00BF8681CC5B2705D0028C2D165
:10375000BDE8FE8FA4710008000000002DE9F05FB5
:1037600082460F4615469846DDE90A9B00241EE076
:103770003819C1B25046FFF71CFF002613E0BBF119
:10378000000F08D005FB046119F80110C943C8B245
:1037900000F08AF805E005FB046119F8010000F06B
:1037A00083F8701CC6B2AE42E9DB601CC4B244456B
:1037B000DEDBBDE8F09F2DE9FF4F83B00646914662
:1037C0001F46DDE9104A4FF0000B082C01D14FF0E5
:1037D000040B002532E0781B401EC1B20A20FFF71F
:1037E000DDFEB9FBF0F00A21B0FBF1F201FB12089B
:1037F000B8F1000F0FD104EBD4710BEB610101FBA9
:103800000561C8B223463022CDF800A00294049985
:10381000FFF7E0FE10E004EBD4710BEB610101FB5C
:103820000561C8B208F13001CAB22346CDF800A044
:1038300002940499FFF7CEFE681CC5B2BD42CADBF4
:1038400007B0BDE8F08F2DE9F843064688461546D7
:103850001F46DDF8209000240BE0CDF800902A5D93
:1038600004FB0761C8B23B464146FFF7B3FE601C4C
:10387000C4B2285D0028F0D1BDE8F88310B5044635
:10388000FEF712FF7820FEF7FAFEFEF7E9FE0020B1
:10389000FEF7F5FEFEF7E4FE2046FEF7F0FEFEF72B
:1038A000DFFEFEF70FFF10BD10B50446FEF7FCFE6D
:1038B0007820FEF7E4FEFEF7D3FE4020FEF7DFFEA1
:1038C000FEF7CEFE2046FEF7DAFEFEF7C9FEFEF753
:1038D000F9FE10BD01460020034A506820F4404024
:1038E00008435060704700000010024029B1064AAA
:1038F000D2690243044BDA6104E0034AD26982438D
:10390000014BDA61704700000010024029B1064AFD
:1039100092690243044B9A6104E0034A926982432C
:10392000014B9A61704700000010024030B5002141
:103930000022002400232D4D6D6805F00C0121B1FB
:10394000042905D0082923D105E0294D056022E08E
:10395000274D05601FE0254D6D6805F47012234D5D
:103960006D6805F48034022505EB92421CB9214DA7
:10397000554305600BE01D4D6D6805F400351DB124
:103980001C4D5543056002E0194D5543056002E0AA
:10399000174D056000BF00BF144D6D6805F0F001C4
:1039A0000909154D6B5C0568DD4045600F4D6D687C
:1039B00005F4E061090A104D6B5C4568DD408560E7
:1039C0000A4D6D6805F46051C90A0B4D6B5C456882
:1039D000DD40C560054D6D6805F44041890B074D1C
:1039E0006B5CC568B5FBF3F5056130BD00100240A6
:1039F00000127A0000093D000000002010000020A5
:103A000010B500F001F810BD0CB500200190009039
:103A10003348006840F480303149086000BF3048C6
:103A2000006800F4003000900198401C019000985C
:103A300018B90198B0F5A06FF1D12948006800F4D9
:103A4000003010B10120009001E0002000900098AB
:103A5000012843D12348006840F010002149086044
:103A60000846006820F0030008600846006840F03F
:103A7000020008601A4840681949486008464068D2
:103A800048600846406840F48060486008464068E6
:103A900020F47C1048600846406840F4E810486014
:103AA0000846006840F08070086000BF0C4800685D
:103AB00000F000700028F9D00948406820F00300A9
:103AC000074948600846406840F00200486000BF6F
:103AD0000348406800F00C000828F9D10CBD000034
:103AE000001002400020024010B500BFBF2080F34C
:103AF0001188BFF34F8FBFF36F8F00BF01F0B4FC8D
:103B000018B14FF080500449086000BF002080F3D6
:103B1000118800BF10BD000004ED00E010B513488F
:103B2000006840F0010011490860084640681049EB
:103B300008400E494860084600680E4908400B4995
:103B400008600846006820F4802008600846406845
:103B500020F4FE0048604FF41F008860FFF750FF1C
:103B60004FF000600449086010BD000000100240E2
:103B70000000FFF8FFFFF6FE08ED00E010B50121A0
:103B8000880700F059F8012803D10121800700F0CF
:103B900041F810BD1FB501210846FFF7A7FE4FF001
:103BA000804000F063F84FF6FE70ADF80800472043
:103BB000ADF804000020ADF80A00ADF8060001A938
:103BC0004FF0804000F05AF84FF4C060FEF7D8FD87
:103BD0001C208DF8000000208DF8010001208DF8D8
:103BE00002008DF803006846FEF792FD012211469F
:103BF000900700F032F81C2001218140044A43095B
:103C000042F8231000BF0121880700F006F81FBD0D
:103C100080E200E0CA430282704721B1028842F08C
:103C20000102028004E002884FF6FE731A4002800F
:103C300070470146888C704730B50246002000234B
:103C40000024158A05EA0103958905EA010413B1E8
:103C50000CB1012000E0002030BD1AB183890B4374
:103C6000838102E083898B438381704701894FF60A
:103C7000F8721140018170478184704700220288E8
:103C80001D4B98420ED01D4B98420BD0B0F1804F87
:103C900008D01B4B984205D01A4B984202D01A4BC1
:103CA000984204D14FF68F731A404B881A43174B32
:103CB000984207D0164B984204D04FF6FF431A4063
:103CC000CB881A4302808B8883850B8803850A4B37
:103CD00098420BD0094B984208D00E4B984205D021
:103CE0000D4B984202D00D4B984201D10B7A0386BE
:103CF0000123838270470000002C01400034014002
:103D00000004004000080040000C0040001000408B
:103D100000140040004001400044014000480140C0
:103D200017E00C4801780CA000F0BCF80E480178B0
:103D30000EA000F0B7F81248006802F0E1FA04465D
:103D400022460B460FA000F0ADF840F6B83001F067
:103D5000B5FAE6E71C000020B5B1C7B0CEC2B6C8C0
:103D60003A2564A1E60A00001D000020B5B1C7B0E5
:103D7000CAAAB6C83A2564252552480A00000000A0
:103D800018000020D1CCCEEDC5A8B6C83A252E32F9
:103D90006670706D0A00000021B1828942F4005201
:103DA000828104E082894DF6FF731A408281704758
:103DB00002460020B1F5007F00D100BF13880B4000
:103DC0000BB1012000E00020704700002DE9F04712
:103DD00086B005460E460024A24600BFA146002735
:103DE000B08900B100BF2F462C8A4CF6FF7004400A
:103DF000F08804432C82AC894EF6F3100440B0885E
:103E000031890843718908430443AC81AC8A4FF679
:103E1000FF400440B0890443AC8201A8FFF786FD4F
:103E20001F48874202D1DDF810A001E0DDF80CA0A8
:103E3000A88900F4004040B10AEBCA0000EB0A1068
:103E400031684900B0FBF1F807E00AEBCA0000EB6B
:103E50000A1031688900B0FBF1F86420B8FBF0F07B
:103E600004012009642101FB1089A88900F40040A5
:103E700040B1322000EBC900B0FBF1F000F00700C8
:103E8000044308E0322000EB09106421B0FBF1F09C
:103E900000F00F0004432C8106B0BDE8F08700005D
:103EA000003801400FB400B59BB01DA8019002A8D6
:103EB000019A1C99FCF72AFA0020019002A800F050
:103EC0001DF81BB05DF814FB01468888C0F308009C
:103ED0007047000010B504462146054800F00AF876
:103EE00000BF80210248FFF763FF0028F9D010BD12
:103EF00000380140C1F308028280704770B5044663
:103F0000002504E0605DFFF7E5FF681CC5B2605D59
:103F10000028F7D170BD00BFFEE7490050EAC1207C
:103F200018BF04204A0D18BF40F0010040F2FF7294
:103F3000B2EB515F08BF40F00200012808BF052026
:103F400070472DE9F0414F1E00EBC7010446D1E94F
:103F5000000115461E4637F006020DD02A463346AC
:103F600001F0BEFE7F1E04EBC703D3E9002301F07E
:103F70004FFC37F00602F1D1022F25D0042F13D0C9
:103F8000062F18BFBDE8F0812A46334601F0A8FE8F
:103F9000D4E90A2301F03CFC2A46334601F0A0FE96
:103FA000D4E9082301F034FC2A46334601F098FE98
:103FB000D4E9062301F02CFC2A46334601F090FE9A
:103FC000D4E9042301F024FC2A46334601F088FE9C
:103FD000D4E9022301F01CFC2A46334601F080FE9E
:103FE000D4E90023BDE8F04101F012BC00221346E1
:103FF0001046014901F0C8BC0000F03F01F008BCC8
:10400000002213461046114601F0BEBC40F20132B8
:1040100000204FF0E04102F04EBC0000024A0020B8
:10402000110702F048BC000001FDFFFF30380A28EC
:1040300001D2012070470020704700B5034603E01D
:104040004FF47A7000F011F8181EA3F10103F7D1B4
:1040500000BD10B5044603E04FF47A70FFF7EDFFA2
:10406000201EA4F10104F7D110BD00EBC001C9006E
:104070004FF0E0225161002191610521116100BFE3
:104080004FF0E021096901F480310029F8D00421C2
:104090004FF0E02211617047F8B506460C46154610
:1040A000ADF8004003208DF802008DF80350012187
:1040B0000820FFF72BFC69463046FEF7AFF8F8BD45
:1040C0001CB5FEF7BEFBFEF7B5F9FEF78BFAFFF75E
:1040D00061FDFDF7D3FE14224FF480513A48FFF7FB
:1040E000DBFF042251023848FFF7D6FF01221103FB
:1040F0003548FEF72BF9FFF717FA0220FFF7A9FF63
:10410000FEF78AFB314802210023CA01CDE90010E5
:104110002FA1314801F074F93048012100234A02EF
:10412000CDE900102EA1304801F06AF900200121EC
:1041300003460A02CDE900102CA12F4801F060F9D6
:104140002E48032100234FF48072CDE900102CA1EA
:104150002C4801F055F92948032100234FF48072BF
:10416000CDE9001028A12A4801F04AF92948012187
:1041700000230A02CDE9001027A1284801F040F9E8
:10418000002002210346CA01CDE9001024A12648DF
:1041900001F036F90020032103464FF48072CDE987
:1041A000001022A1224801F02BF900200121034632
:1041B0000A02CDE900101FA1204801F021F901F009
:1041C00097F800201CBD00000008014024000020DA
:1041D00044485431310000002D1F00082800002001
:1041E0004F4C454400000000D92700084F4C45447F
:1041F000536C656570000000952700082C000020B6
:10420000426C6500551E0008555341525400000091
:10421000213D0008300000204D513200612400088B
:10422000466C616D65000000DD2100084B6579007A
:104230005D23000842757A7A65720000DD1E000871
:104240002DE9F04D1D460C4698B0174621F000416F
:1042500023F00043002814BF4FF0010C4FF0000C76
:104260000CEB440CFE4A0CEB02064FEA620C66456E
:104270002BD33E0018BF012606EB45061644F94A2B
:10428000964222D3F84A53EA070C02D0944205D151
:1042900048B918B000201146BDE8F08D002808BFCD
:1042A0004FF0000C01D04FF0010C0CEB440212F562
:1042B000001F0AD8002F14BF4FF0010C4FF0000C64
:1042C0000CEB450212F5001F07D918B03A462B46F1
:1042D0002146BDE8F04DFFF791BE0022DFF88CA328
:1042E000002CB8BF534526DADFF884C36345A8BF66
:1042F000022220DADFF870C39C451CDCDFF874C3AF
:104300000CEB235CBCF1140F08DDCCF1340627FA6A
:1043100006FC0CFA06F6BE420DD108E05FB9CCF1FE
:10432000140623FA06FC0CFA06F69E4203D10CF0A2
:104330000102C2F1020251EA000C19D1002D17DA74
:10434000002C18BF022A01D0012A07D00220FCF756
:1043500039F918B0BDE8F04DFFF748BE0220FCF770
:1043600031F9FFF743FE18B081F00041BDE8F08D50
:10437000B7F1000C6CD1534525D104F1804212F500
:10438000801201BF00280020B74918B008BFBDE85F
:10439000F08DB548884207DC002DA1BF6046294654
:1043A00018B0BDE8F08D07E0281E05DA80F0004166
:1043B00018B06046BDE8F08DAF497944D1E90001FD
:1043C00018B0BDE8F08DDFF8A0C2634525D1002DFF
:1043D0001FDA19B1514512D1D8B909E0002840F0CF
:1043E000EC82A24A214618B062F31E01BDE8F08DAE
:1043F0000020214618B060F31E01BDE8F08D08DAF8
:1044000018B02346BDE8F04D02460020614601F099
:10441000BBBA18B02146BDE8F08D514518DAB5F1A8
:10442000804F0DD0A5F1005CBCF1FF5C10D1B4F160
:10443000000C0DDB18B06146BDE8F04D00F086BE03
:10444000234618B00246BDE8F04D194601F048BCBD
:10445000060024F0004C3BD1D9B1514533D1002C9A
:1044600006DD002DA1BF0020514618B0BDE8F08D3B
:10447000002C01DD002D1BDB002C13DA002D11DBDD
:10448000012A4FF0000014BF78497C4918B0BDE8FC
:10449000F08D022A18BF002C0AD0012A08D1002C66
:1044A00006DA0AE0002CB8BF002D11DA012A04D088
:1044B000002018B00146BDE8F08D18B000204FF084
:1044C0000041BDE8F08DA1F14050B0F17F601AD0FD
:1044D000012000EBE47050EA020421D0624C521E2D
:1044E0004FF0000B104304BF4FF0000B644C6548C5
:1044F00083427CDD644A654893421FDD884217DBB6
:10450000002D25DB37E0002C00DA4AB1022A0CBF6F
:1045100001204FF0FF3018B0BDE8F04D01F08CBB2A
:104520000120FCF74FF818B0BDE8F04DFFF768BD6B
:104530004D4A8A4202DC002D0ADC1CE0814202DA8C
:10454000002D18DA04E0484B994220DD002D12DDE1
:104550000220FCF737F8FFF759FD05460E4600220A
:1045600053465846214601F0BBFB18B066F31E01C6
:104570002846BDE8F08D0220FCF724F8FFF74EFD39
:104580000A46214618B062F31E01BDE8F08D0022F4
:104590003046614601F0CAFD80460E466FF00102CA
:1045A00002F089F94FF05532394B01F0CDFC42460B
:1045B000334601F095FB0022364B01F0C5FC8246E4
:1045C0004246334604911046194601F089FB524693
:1045D000049B01F085FB8A4600904FF0C0422E4BB1
:1045E0004046314601F07CFB2C4A2B4B00E027E093
:1045F000CDE906015146009801F072FB8246019117
:10460000274A284B4046314601F06AFB5246019B3F
:1046100001F08CFD82460B4602460591DDE906015C
:1046200001F0F6F8DDE9062300268846304601F061
:104630007DFD5246059B01F087FC024600F07EB9E5
:104640000020B1F5801F07DA35223046614602F0BE
:1046500032F906466FF0340000EB215024E00000F0
:10466000FFFF1F00FFFF0F000000F03F0000F07F82
:104670000000404301FCFFFFDA3600000000F0FFBD
:104680000000F0BF0000E0410000F043FFFFEF3FFB
:104690005555D53F0000E03F4715F73FFE822B659B
:1046A00044DF5DF80BAE543EA0F2FF300190C1F341
:1046B000130040F07F6141F040510291FE49884271
:1046C000D8BF002004DDFD498142C8BF012001DDC3
:1046D0000D9008E000200D900198401C0190029878
:1046E000A0F5801002900299F54878440B910D993D
:1046F00000EBC100D0E900230F9330460A920B99DA
:1047000001F014FDCDE90601DDE90A2130460F9BD9
:1047100001F07EF802460B460020EA4901F034F928
:10472000059102460B460090DDE9060101F0D8FA3A
:104730001490E5488A464FF00008784402990068D2
:1047400012904FF0005040EA61010D980F9B01EB71
:10475000804000F5002109910A9A129801F0E6FCC8
:1047600032460B9B01F0F0FB4246534601F0B8FA8B
:104770000646029140465146099B129A01F0B0FA52
:10478000DDE9062301F0E0FB3246029B01F0CEFC9E
:10479000059B009A01F0A4FA0091149A04905346E4
:1047A0001046194601F09CFA06460246C7480B46D9
:1047B000029106217844FFF7C4FBCDE90510029B66
:1047C00032461046194601F08BFADDE9053201F058
:1047D00087FA05910646534640461946149A01F059
:1047E00017F8009B049A01F07BFA3246059B01F012
:1047F0000FF8CDE90510424653461046194601F020
:104800006FFA0022B24B02910A9001F001F8DDE943
:10481000053200F0FDFF0E464246AD4B404601F02A
:1048200085FC029B0A9A01F081FCDDE9053201F06A
:104830008BFB424602910A9033461046514601F0E6
:104840004FFACDE906015346149A02990A9801F0ED
:1048500047FA8A460290334642460099049801F08E
:104860003FFA5346029A00F0D3FF82460B460246B7
:104870000591DDE9060100F0CBFFDDE9062300200C
:104880008846064601F052FC5246059B01F05CFB4F
:10489000824609914FF060428E4B3046414601F00E
:1048A0001FFA049006918C4A8A4B5046099901F0F0
:1048B00017FA82460291894A894B3046414601F0F7
:1048C0000FFA5246029B00F0A3FF864B7B440D9AE1
:1048D00003EBC203D3E9002300F09AFF0E90079187
:1048E000019801F0A9F90591DDE9061382460E9AB7
:1048F000049800F08DFF7C4A7A440D9B02EBC303C1
:10490000D3E900230093029200F082FF5246059BF8
:1049100000F07EFF0026884652463046059B01F097
:1049200005FC009B029A01F001FC069B049A01F031
:10493000FDFB079B0E9A01F007FB024600200B4689
:1049400002903846294601F0CBF9824601912B4668
:1049500038461946029A01F0E9FB3246434601F017
:10496000BFF95246019B00F053FF07468A46324684
:1049700043462946029801F0B3F905460E463A46E9
:10498000534600F045FF594A8846914221DBA8EB87
:10499000020353EA000210D12A46334601F0C6FB57
:1049A000CDE90401524A534B3846514600F030FFDE
:1049B000DDE9042301F092FA21D20220FBF702FE86
:1049C000FFF724FB0A46214618B062F31E01BDE83A
:1049D000F08D494B28F000429A4210D3474A08EB29
:1049E000020353EA00027FF4C6AD2A46334601F0C3
:1049F0009DFB3A46534601F071FA7FF6BCAD0022AA
:104A0000019228F000403E493E4A01EB205182428B
:104A100023DA481C4FF4801121FA00F040443A4A4E
:104A2000C0F30A517A44394BA1F2FF31CB4020EA5E
:104A30000303C0F3130040F48010C1F11401C84017
:104A400012680190B8F1000FBCBF404201902846A7
:104A5000314601F06BFB05460E462A463346384682
:104A6000514600F0D5FE4FF000084246284B404624
:104A7000059101F035F9CDE90601264A264B40465D
:104A8000059901F02DF9009102902A4633464046DF
:104A9000059901F04BFB3A46534601F055FA1F4A7F
:104AA0001F4B01F01DF9009B029A00F0B1FE074672
:104AB000884602460B4635E08E9803007AB60B0016
:104AC000F23200000000F03F5A330000583200007C
:104AD0000000084009C7EE3FFD033ADCF5015B1416
:104AE000E02F3EBE30310000F43000000000904066
:104AF000FE822B654715973C00CC904000346F3FF9
:104B000001FCFFFF0000E03F70300000FFFF0F00DE
:104B1000432EE63F396CA80C615C20BEEF39FAFEEB
:104B2000422EE63FDDE9060100F072FEDDE90623D4
:104B300005460E4601F0FAFA3A46434601F004FAF9
:104B40000F462A46334600901046194601F0C8F831
:104B5000824602462E4888460B4605217844FFF7D8
:104B6000F0F95246434601F0BBF82A46334601F0BD
:104B7000EBF980468A463B4628463146009A01F0CA
:104B8000AFF83B46009A00F043FE069100900022E9
:104B90004FF080434046514601F0C8FA0F460C9052
:104BA000424653462846314601F09AF83B460C9A55
:104BB00000F0EAFE069B009A01F0B8FA2A46334656
:104BC00001F0B4FA0022134B01F0BEF9054601983A
:104BD0000E4601EB00510815002810DC284631462E
:104BE000019A01F068FEFFF798F9042808BFFFF763
:104BF00015FA28463146019A01F05DFE05460B463E
:104C000018B02A4658462146BDE8F04D01F068B874
:104C1000E02E00000000F03F2DE9F04105460E4671
:104C20002648076826480068001D00F0B5FA50B90C
:104C30002348006890F82C10012088402149096819
:104C4000814320480160681CD8B9D6B11E49486824
:104C50001B49096888601A4982680968CA6018494E
:104C60000968091D8268516015490968091D81603C
:104C7000154A134909684A6111460968491C1160BF
:104C80001AE07C190E4800684460BC4207D20C4808
:104C90000168091D0D48006800F0A2FA0CE0084800
:104CA0000168091D0A48006800F09AFA094800687E
:104CB000844201D207480460BDE8F081680000200A
:104CC000540000206C000020744500205C0000208F
:104CD000580000208400002010B5044600F09AFA25
:104CE0002F480068401C2E4908602E48006840B9D3
:104CF0002C4804600846006801280DD100F016F920
:104D00000AE02948006838B926480068C06AE16AA4
:104D1000884201D82348046024480068401C234985
:104D2000086094F82C100120884021490968084344
:104D30001F490860E16A01EB81011E4A02EB810113
:104D40004868A0608268E260211D826851608160CD
:104D5000E16A01EB8101174A02EB81026261E16ABB
:104D600001EB8101134A52F82110491CE26A02EB5F
:104D70008202104B43F8221000F05EFA0A480068E5
:104D800068B108480068C06AE16A884207D24FF0FB
:104D9000805009490860BFF34F8FBFF36F8F10BD7C
:104DA00064000020540000207000002080000020DB
:104DB0006C000020C044002004ED00E010B516E0B7
:104DC00000F028FA0C48C068C468201D00F0E4F91F
:104DD0000A480068401E0949086009480068401EEA
:104DE0000749086000F028FA204600F00BF8044854
:104DF00000680028E4D110BD604500206400002058
:104E00006000002010B50446206B00F025FA204613
:104E100000F022FA10BD000030B54FF48843154869
:104E200000F007042CB1C01D20F00700114C041B3A
:104E30001B1B0246104C226000240F4D6C60D018E2
:104E4000083820F007000D4C206000240B4D2D6821
:104E50006C600A4D2D682C601146441A4C60074C5A
:104E600024680C60064D4C682C60064D4C682C6024
:104E700030BD0000C0000020340000203C000020B5
:104E8000440000204000002000BFFFF797FF0648C5
:104E900000680128F9D94FF0805004490860BFF339
:104EA0004F8FBFF36F8FF0E7C044002004ED00E0A8
:104EB0002DE9FF5F80460E469146DDE90E7A109C93
:104EC000A9F10100216B01EB800B2BF0070B7EB1E8
:104ED000002507E0715D04F134004155705D00B9B3
:104EE00002E06D1C102DF5D300BF002143200155B9
:104EF000052F00D30427E762201D00F06EF904F1AE
:104F0000180000F06AF92461C7F10500A06164622D
:104F100041465846039A00F007F92060BAF1000FA5
:104F200001D0CAF80040BDE8FF9F000010B5002482
:104F300007E004EB84010F4A02EB810000F040F926
:104F4000641C052CF5D30C4800F03AF90B4800F02E
:104F500037F90B4800F034F90A4800F031F90A48F3
:104F600000F02EF90448094908600448084908601F
:104F700010BD0000C044002024450020384500201A
:104F80004C4500206045002074450020580000205A
:104F90005C00002010B50146164800E00068036878
:104FA0008B42FBD30246436813448B4204D14368CF
:104FB0004C682344436001460A464B681344046826
:104FC000A34211D10C4C03682468A34208D04B685B
:104FD0000468646823444B6003681B680B6005E049
:104FE000054B1B680B6001E003680B60884200D032
:104FF000016010BD340000203C000020094800681A
:10500000006808B9012000E0002020B14FF0FF3017
:105010000549086005E003480068C0680068024967
:1050200008607047580000208400002000BFBF20A7
:1050300080F31188BFF34F8FBFF36F8F00BF00BFA6
:10504000FEE700002DE9F04705464FF0000900F0AB
:1050500085F93048006808B9FFF7DEFE75B105F044
:105060000700C0F11008C8F1FF30A84201D20120AA
:1050700000E0002008B9454400E00025012000EBD5
:10508000E570002841D0002D3FD0234800688542BC
:105090003BD8224E3046046801E02646246860680A
:1050A000A84202D220680028F7D11A48006884423A
:1050B0002BD0306800F10809206830606068401B20
:1050C000102807D967196068401B7860656038460A
:1050D000FFF760FF104960680968081A0E49086008
:1050E000084600680E490968884203D20A480068E9
:1050F0000B490860606840F000406060002020605C
:1051000008480068401C0749086000F075FA4846E6
:10511000BDE8F0873C000020400000203400002063
:105120004400002048000020001F4FF080730360FF
:10513000001F21F001030360001F034B03601438BC
:1051400002602038704700002D5000082DE9F04122
:1051500006460F4600F004FF041E0D4618BF01204E
:10516000284320F00040C0F17F6000F1E040C00F14
:105170000ED0301C18BF0120384320F00040C0F191
:105180007F6000F1E040C00F04BF0120FBF71AFA76
:1051900020462946BDE8F08101460A69D1E901307F
:1051A0009860D1E9010358605068884201D188684D
:1051B0005060002008611068401E10601068704741
:1051C00000F1080141604FF0FF31816000F10801FA
:1051D000C1600161002101607047002101617047D9
:1051E00010B502460B685C1C0CB9106907E002F1AF
:1051F000080000E04068446824689C42FAD944688A
:105200004C604C68A160886041600A611468641C4D
:10521000146010BD00BFBF2080F31188BFF34F8F13
:10522000BFF36F8F00BF03480068401C014908604E
:10523000704700005000002006480068401E0549E5
:1052400008600846006820B9002080F3118800BF7C
:1052500000BF70475000002070B506463546E6B1E5
:10526000083D2C466068C00FB8B12068A8B96068D6
:1052700020F00040606000F071F80849606809683B
:105280000844064908602046FFF784FE0448006889
:10529000401C0349086000F0AFF970BD40000020D9
:1052A0004C00002000204FF0E02108618861024896
:1052B00048610720086170473F19010070B5044636
:1052C000002544B100F04AF800212046FFF7A4FC75
:1052D00000F092F905463DB94FF08050034908604F
:1052E000BFF34F8FBFF36F8F70BD000004ED00E080
:1052F0001CB5124800210B468022CDE9001010A1F8
:10530000114800F07DF80446012C14D100BFBF20E5
:1053100080F31188BFF34F8FBFF36F8F00BF4FF043
:10532000FF300A4908600120094908600020094946
:10533000086000F04BF8084800681CBD8800002099
:1053400049444C4500000000894E000884000020BC
:1053500070000020680000208C00002002480068D7
:10536000401C014908607047900000201248006806
:1053700018B10120114908601DE000200F490860A4
:105380000F480068B0FA80F0C0F11F0101EB810204
:105390000C4B03EB820042685268426000F1080245
:1053A0004368934202D14268526842604268D268C0
:1053B000054B1A6000BF7047900000207800002065
:1053C0006C000020C04400205400002010B50A48A2
:1053D000006840F47F00084908600846006840F013
:1053E0007F400860FFF75EFF002004490860FAF77D
:1053F00033FF002010BD000020ED00E05000002031
:105400002DE9FF4F85B0804689461746DDE912AB8E
:10541000B800FFF717FE064676B14C20FFF712FEE4
:1054200004462CB14C212046FBF75CF8266304E0CF
:105430003046FFF711FF00E000247CB10020CDE9E9
:1054400000ABCDE902403A4649464046089BFFF78B
:105450002FFD2046FFF740FC012501E04FF0FF350E
:10546000284609B0BDE8F08F2DE9F04100275748E4
:10547000006800287ED156480068451C54480560E5
:105480008DB95448D0F800805348006851490860ED
:105490005148C0F8008051480068401C4F490860DE
:1054A000FFF7ACFD00BF4E480068854276D300BFD1
:1054B00048480068006808B9012000E0002020B1D9
:1054C0004FF0FF304649086067E042480068C06816
:1054D000C4686668B54202D2414806605DE0606912
:1054E000D4E902128A60D4E902214A60211D42688F
:1054F0008A4201D1E1684160002262610168491E6F
:105500000160A06A98B1A06AD4E907128A60D4E960
:1055100007214A6004F1180142688A4201D1216AD8
:1055200041600022A2620168491E016000BF94F838
:105530002C10012088402B4909680843294908603C
:10554000E16A01EB8101284A02EB81014868A06011
:105550008268E260211D826851608160E16A01EB2E
:105560008101214A02EB81026261E16A01EB810162
:105570001D4A00E022E052F82110491CE26A02EBC9
:105580008202194B43F822101849E06A0968C96A77
:1055900088428DD901278BE700E000BF13480068DF
:1055A000C06A00EB8000104951F82000012800D9A2
:1055B00001270F48006800B1012704E00D4800688A
:1055C000401C0C4908603846BDE8F081900000207E
:1055D00068000020580000205C0000207C000020B3
:1055E000840000206C000020C044002054000020F3
:1055F000780000207400002070B500240026FFF71A
:1056000009FE4B480068401E49490860084600688A
:1056100000287DD147480068002879D05BE04648E3
:10562000C068C468A06AD4E907128A60D4E9072177
:105630004A6004F1180142688A4201D1216A41603E
:105640000022A2620168491E01606069D4E9021269
:105650008A60D4E902214A60211D42688A4201D150
:10566000E1684160002262610168491E016094F8AE
:105670002C10012088403149096808432F490860EF
:10568000E16A01EB81012E4A02EB81014868A060CA
:105690008268E260211D826851608160E16A01EBED
:1056A0008101274A02EB81026261E16A01EB81011B
:1056B000234A52F82110491CE26A02EB8202204B75
:1056C00043F822101F49E06A0968C96A884202D378
:1056D00001201D4908601848006808B9012000E051
:1056E000002000289BD00CB1FFF788FC1748056804
:1056F00065B100BFFFF7B8FE10B101201249086084
:105700006D1E002DF6D10020104908600E4800E003
:1057100009E0006838B1012630070D490860BFF381
:105720004F8FBFF36F8FFFF787FD304670BD0000CE
:1057300090000020640000204C4500206C000020F8
:10574000C044002054000020780000207400002095
:1057500004ED00E010B500290AD00878002807D031
:1057600005487844FAF7E6FE002801D0002010BD75
:105770000248784410BD00001A24000012240000E2
:1057800010B500290AD00878002807D005487844C9
:10579000FAF7D0FE002801D0002010BD024878445E
:1057A00010BD00000A2400000224000021F0004285
:1057B000A2F16052B2F5801F01F0004328BFD2F180
:1057C0007F6C0BD95FEA001C43EAC20242EB5070C7
:1057D00018BF704728BF20F001007047B2F5801F46
:1057E000BCBF184670474FEA410C1CF5001F02D29F
:1057F000084600F0B0BF70B500F01CFB0000008947
:10580000FFF7F6BF4FF00040A0F5800070470000A2
:1058100010B591EA030F48BF83F0004300F18E8476
:10582000841A71EB030C05D2121943EB0C03001B15
:1058300061EB0C01DFF824E14FEA1154A4EB135C97
:105840001EEA430F18BF9EEA445F73D023EA0E039B
:10585000DCF1200E21EA045143F4801332D322FA02
:105860000CFE10EB0E0023FA0CFE41EB0E01CCF106
:10587000200E03FA0EFE10EB0E0051F10001B1F5FF
:10588000801FCCF1200E32D201EB045112FA0EF23D
:10589000BDE8104058BF7047401C38BF5FEA420265
:1058A00018BF7047002814BF20F0010041F100012B
:1058B0004FEA410313F5001F38BF7047A1F1C04103
:1058C00000F006BB012A43EB0302ACF1200CDCF133
:1058D0001F0E32BF4FF0000E23FA0CF310EB030043
:1058E00041EB0451B4EB115FD0D0A1EB045101F5B1
:1058F000801149085FEA300001EB04510ED350F1EA
:10590000000038BF12FA0EFE08D1BDE81040C9E70A
:10591000401C38BF5FEA4202CAD1C3E7BDE810406D
:105920004FEA410313F5001F38BF7047A1F1C04192
:1059300000F0CEBA9EEA445F08D011EA5E0FBDE8DF
:10594000104004BF01F0004100207047BDE8104046
:1059500070B500F06FFA00BF64FBBE3E0000E0FFD0
:1059600002494FF0000000F074BF00BF0000F87F54
:10597000491058BFC1F140415B1058BFC3F14043CB
:105980008B42EFF3008070472DE9C04130B4DFF85F
:10599000A0C23CEA111418BF3CEA131400F0EC80DA
:1059A00081EA03051CEA111444EAD57418BF1CEA05
:1059B000131500F0C780A4EB05044FF0004545EA3D
:1059C000C12145EAC32341EA505143EA525304F14D
:1059D0007F74994204F500344FEAC0204FEAC22296
:1059E00008BF904200F09C804FEA13650FF240160A
:1059F000765D4FEA134506FB05F7C7F1807706FB96
:105A000007F74FEAD737A7FB03687642C8F5803817
:105A1000A7FB06CE38BFA8F1010807FB08E64FF048
:105A2000000EA6FB028CE6FB03CEDCF1000CCEF1EF
:105A3000004E38BFAEF1010EA6FB0C584FF0000728
:105A40004FF00005E6FB0E87A1FB08C6A0FB07CEC2
:105A500016EB0E0645F10005E1FB076515F1E04E7A
:105A60007EBFA4F580345FEA46066D4116F18007DB
:105A700045F100054FEA17274FEA066647EA056732
:105A8000A6F1DE46B6F1805F4FEA15251FD93846EC
:105A900024F0010C05EBC471BCF1FE6F01EB0C119D
:105AA00002D8F0BCBDE8008124425CBF01F5801E35
:105AB0009EEAC47F02D4F0BCBDE80081244238D401
:105AC000F0BCA1F1C041BDE8004100F001BA4FEACD
:105AD000D22242EA43524FEAD323A7FB02864FEA7F
