:020000040800F2
:100000009806002035020008B52100088F1F00085F
:10001000B52000087D1B00085530000800000000D6
:10002000000000000000000000000000E1280008BF
:10003000091D000800000000CB270008CD2900089A
:100040004F0200084F0200084F0200084F0200084C
:100050004F0200084F0200084F0200084F0200083C
:100060000D1D00084F020008291D00084F0200085E
:100070004F0200084F0200084F0200084F0200081C
:100080004F0200084F0200084F0200084F0200080C
:100090004F0200084F0200084F020008451D0008EB
:1000A0004F0200084F0200084F0200084F020008EC
:1000B000312A0008D92A0008B52B00084F02000891
:1000C0004F0200084F0200084F0200084F020008CC
:1000D0004F0200084F0200084F0200084F020008BC
:1000E0004F0200084F0200084F02000800F002F81B
:1000F00000F090F80AA090E8000C82448344AAF132
:100100000107DA4501D100F085F8AFF2090EBAE82F
:100110000F0013F0010F18BFFB1A43F0010318473B
:100120002041000040410000103A24BF78C878C147
:10013000FAD8520724BF30C830C144BF04680C60ED
:10014000704700000023002400250026103A28BF35
:1001500078C1FBD8520728BF30C148BF0B60704739
:100160006E2900F0AD82702900F0EF83662903F05C
:100170007381652903F07081672903F06D8161291E
:1001800003F06C8103681B0A28BF41F080016929D4
:1001900000F09880642900F09580752900F0928025
:1001A0006F2900F07C83782900F0BB83E92900F0F7
:1001B0001783E42900F01483F52900F01183EF2957
:1001C00000F07983F82900F0BA830368DB0928BFBF
:1001D00041F08001632900F09F87732900F0A48714
:1001E000E32900F0AF87F32900F0B48700207047BF
:1001F0001FB501F001F804000020002103F016F9FA
:10020000401C60600020002103F0FAF8E0601FBD90
:1002100010B510BD00F0C2FF1146FFF7E9FF02F074
:1002200079FF01F09FF803B4FFF7F2FF03BC01F080
:10023000A7F800000948804709480047FEE7FEE7A5
:10024000FEE7FEE7FEE7FEE7FEE7FEE7FEE7FEE786
:1002500004480549054A064B70470000D1290008AB
:10026000ED00000898000020980600209802002069
:10027000980200201CB50C46064B7B446946009052
:10028000204600F036FA04460020694600F044FAA1
:1002900020461CBD9B0400000FB41CB5084B06AAE9
:1002A0007B4469460090059800F023FA044600203C
:1002B000694600F031FA20461CBC5DF814FB0000D2
:1002C000750400002DE9F0410646002410687529E8
:1002D000314616A510D000F05FF9002802DA40423E
:1002E00013A507E031688A0701D512A502E0490786
:1002F00004D511A5012401E000F057F900210A22DC
:1003000006F1240709E0B0FBF2FCB0FBF2F302FBBC
:100310001C00303078541846491C0028F3D123467D
:100320002A463046BDE8F04100F071B900000000F7
:100330002D0000002B000000200000002DE9F05FE0
:10034000894604464FF0000ADFF874B1FB44C0F858
:1003500020A02046E1688847002874D0252806D0D0
:10036000D4E901219047206A401C2062F1E7002671
:100370005F462046E16888472028054607DB312D87
:1003800005D2781910F8200C08B10643F1E7B00740
:1003900001D526F00406C4F81CA00027C4F818A054
:1003A0002A2D09D0284602F06BFE38B304EB8708EB
:1003B000303DC8F8185019E059F8041B204604EBEA
:1003C00087029161E1688847012F054618D1E069ED
:1003D000002820DA26F020061DE0D8F8180000EBEF
:1003E000800005EB40003038C8F818002046E1686E
:1003F0008847054602F044FE0028EED1012F0AD0BE
:100400002E2D08D12046E16888477F1C0546022F23
:1004100046F02006C4DBA069002803DA404246F01B
:100420000106A061F00701D026F010066C2D0BD05C
:10043000682D09D04C2D39D06A2D35D0742D35D08A
:100440007A2D33D016E038E0E1682F462046884701
:10045000B842054609D16C2F26D04FF48060E16880
:10046000064320468847054604E06C2F1AD04FF417
:10047000807006430DB3A5F14100192802D820353C
:1004800046F400664A462946204626604E46FFF757
:1004900067FE80B101280BD0F61D26F0070000F1A1
:1004A000080956E74020E4E78020D8E70020D6E797
:1004B00006F104094DE7284652E7206ABDE8F09F9F
:1004C000F23D00004FF0013C50F8042B51F8043B82
:1004D0009A4221D1A2EB0C03934313EACC1317D118
:1004E00050F8042B51F8043B9A4215D1A2EB0C03AF
:1004F000934313EACC130BD150F8042B51F8043B6F
:100500009A4209D1A2EB0C03934313EACC13DBD03C
:100510004FF00000704700BFD01A01BAB1FA81F164
:1005200001F0180122FA01F0CB40C1F12001DBB249
:10053000C0B2C01A2CFA01F3D11A914311EAC311C7
:10054000E6D1704770477047704770B504468569BB
:100550000068C10601D5302600E02026C00707D07C
:1005600070BDD4E9012130469047206A401C2062CA
:100570006D1EF6D570BD70B5044685690078C0075C
:1005800007D170BDD4E9012120209047206A401C8A
:1005900020626D1EF6D570BD09684A0501D540B2CE
:1005A0007047C905FCD500B2704709684A0501D5F6
:1005B000C0B27047C905FCD580B2704770B50C4613
:1005C0000546012A05D02878800600D5EA6900236F
:1005D00002E0012305E05B1C934202D2E05C0028AC
:1005E000F9D1A869E618C01AA861286A18442862D7
:1005F0002846FFF7AAFF04E0D5E9012114F8010B12
:100600009047B442F8D32846FFF7B5FF70BD2DE9F7
:10061000F0470D4699469246044600F124080168C9
:10062000880604D5E06921F01001216000E0012076
:10063000A84201DD471B00E00027A1697A1902EBFF
:100640000900081AA0612078C00602D42046FFF7EE
:100650007CFF002608E0D4E901211AF80600904743
:10066000206A401C761C20624E45F4DB2078C006D0
:100670000AD52046FFF769FF06E0D4E901213020C2
:100680009047206A401C2062381EA7F10107F4DC65
:1006900007E0D4E9012118F805009047206A401CC2
:1006A0002062281EA5F10105F3DC2046FFF763FF59
:1006B0002078000602D50220BDE8F0870120FBE784
:1006C00011680268006A530501D508700AE0D30575
:1006D00001D5088006E0130603D5C217C1E9000260
:1006E00000E008600120704701694A1C0261087837
:1006F000704700B58FB0CDE9013100210591054962
:100700007944CDE9031011466846FFF717FE0FB094
:1007100000BD0000E5FFFFFF0A6802F8010B0A6058
:10072000704700002DE9FF5F15468A460446DFF852
:10073000AC80F8440027D8E900103E46CDE900100F
:1007400010E03AF816106A4602A800F007FD411CB6
:1007500007D02178890603D5E269391891420DD86E
:100760000744761C2078800602D5E069B84205DD92
:10077000AE42E6DB3AF816000028E2D1A069C01BC1
:10078000A0612046FFF7E1FED8E90010CDE9001096
:10079000002017E03AF818106A4602A800F0DEFCC4
:1007A000B0F1FF3F81460BD000250DF1080B05E0AD
:1007B000D4E901211BF8050090476D1C4D45F7D386
:1007C00008F10100B0428046E4DB206A3844206230
:1007D0002046FFF7D0FEBDE8FF9F00001E3A000054
:1007E0002DE9F0418046D21D22F007020025D2E912
:1007F0000002F52915A614D0011E72F1000106DAD7
:100800000023D0EB030063EB020211A608E0D8F846
:1008100000108B0701D50FA602E0490701D50EA6EF
:1008200001251146002408F1240704E000F098F89F
:1008300030323A55641C50EA0102F7D12B46324659
:1008400021464046BDE8F041FFF7E1BE0000000050
:100850002D0000002B0000002000000030B400211B
:1008600000F1240408E002F00705D208303542EA1E
:100870004372DB086554491C52EA0305F3D104684E
:10088000002310A2250707D5A40600D421B1C4690E
:1008900001230DA2641EC46130BCFFF7B8BE10B5C1
:1008A000044621461068FFF780FE02462046BDE858
:1008B00010400023D2E7D21D22F00701D1E9002326
:1008C000CCE700000000000030000000F0B40D464E
:1008D0000188090502D5214C7C4402E01F4C7C4470
:1008E0000E34002100F1240608E002F00F0712097F
:1008F000E75D42EA03721B097754491C52EA030779
:10090000F3D102780023120704D5702D06D009B167
:10091000022311342246F0BCFFF779BE01231034C4
:10092000F8E770B504460D4621461068FFF73DFE16
:10093000024629462046BDE870400023C6E7D21D86
:1009400022F00703D3E90023C0E70368126843F0ED
:10095000200303600823C3610023B7E78038000049
:1009600030B5B0F10A024FEA900E71F100034EEA81
:10097000817EB0EB0E0061EB91014FEA101E4EEA52
:10098000017E10EB0E0041EB11114FEA102E4EEAE2
:10099000016E10EB0E0041EB11214FEA104E4EEAB2
:1009A000014E10EB0E0041EB1141401841F10001E6
:1009B0004FEAD00040EA41704FEAD10110EB8005C8
:1009C0004FEA810444EA907444EB01046D1944EB4E
:1009D0000404521BA3414FF0000348BF0A3200D564
:1009E00030BD401C41F1000130BD70472DE9FF4F83
:1009F0000C461E464FF0FF378BB0D2E90001DDF800
:100A000060800A908A46C1F30A5505B93D46002127
:100A100008464FF00000BAF1000F00F4400005DA7C
:100A200000EB80004FF4400101EA50004FEA90597A
:100A3000B9F1010F00DDB9460A9850EA4A000ED01C
:100A400044F61050A5F2FF3545432F14B8F1000FBE
:100A50001ED07542291E1EDDC9F100021CE0B8F14E
:100A6000010F4FF0000001D0302103E0F24305E018
:100A70002154401CB042FBDB3046002200212154AF
:100A80000B99C1F80880C1E900200FB0BDE8F08FD4
:100A9000BD1B6D1CDEE74A4600DA694206A800F07D
:100AA000EFFB06AB93E8070003AB83E80700504673
:100AB0000A9900F06CFC8DE80700A0F500501F3883
:100AC00000900398002D0ADD42F21F014A460844B7
:100AD000002303A90390684600F0D5FE09E0A0F5C5
:100AE00000504A461F38002303A90390684600F0CF
:100AF000DFFE8DE807000004000C03D04FF0FF304C
:100B0000410800E01046B8F1000F03D00022009227
:100B100015461EE0751E05D4FFF722FF30326255E0
:100B20006D1EF9D5B3460122084302D000227F1C76
:100B300004E02078302801D100227F1E002A099786
:100B400084D01DE0112D07DAFFF70AFF303262551D
:100B50006D1C50EA0102F5D1084302D00098C8B1DB
:100B60000EE00021681E05E0235C625C63542254A1
:100B7000401E491C8142F7DBAB46A81B401E099072
:100B8000002004F80B000B98099AC0F80880C0E90F
:100B9000002B7AE711264FF0000857E72DE9F04FB8
:100BA00088460446D21D22F0070191B0D1E9000128
:100BB000CDE90A0102F050FA02460B98C00F01D0AD
:100BC0002D2007E02068810701D52B2002E020219D
:100BD00001EAC000032A099001D0072A05DB034679
:100BE0004146204600F00CFB0BE12078800601D541
:100BF000E06900E00620B8F1650F814606D0B8F143
:100C0000660F18D0B8F1670F70D131E00020B9F14C
:100C1000110F009001DB112301E009F101030AAA81
:100C200001A90CA8FFF7E2FEDDE90C70002609F12E
:100C30000105834647E001204B4600904FF00047F6
:100C40000AAA01A90CA8FFF7D1FEDDE90DB00C99A5
:100C50005D46002610B909F101000D18B9EB050039
:100C600003D4C0F1FF3609F10105A5EB09002BE023
:100C7000B9F1010F01DA4FF001090020B9F1110FAC
:100C80000090484601DD112300E003460AAA01A9AD
:100C90000CA8FFF7ABFEDDE90C704D46002683463D
:100CA000207800070AD4AB4500DA5D4601A8012D83
:100CB00004DD411911F8011C302907D04F4502DA33
:100CC00017F1040F04DA012082460FE06D1EEEE7F3
:100CD000002F02DCED1B3E4403E0781CA84200DD3F
:100CE0007D1CB81B00F1010A4FF000472078000777
:100CF00003D4AA4501DB4FF0FF3A0021B7F1004FC2
:100D00000DF143088DF8431024D002202B23002F2F
:100D100001DA7F422D230A21021EA0F1010000DC2E
:100D20005FB197FBF1FC97FBF1F201FB1C7C1746CE
:100D30000CF1300C08F801CDEEE7A8F101000370CA
:100D40002188090501D5452100E06521A0F10108B0
:100D500000F8011C09980FA9A1EB0807FF1D00B1BD
:100D60000120411901EBEA70A1693844081A401EBC
:100D7000A0612078C00602D42046FFF7E6FB099860
:100D800028B1D4E901219047206A401C20622078D4
:100D9000C00622D52046FFF7D8FB1EE0002E04DB5C
:100DA000B34502DD01A8805D00E03020D4E90121D7
:100DB0009047206A401C2062761CAAF101005FEA7D
:100DC000000A0AD100F018FAC0680168405CD4E952
:100DD00001219047206A401C2062281EA5F10105D0
:100DE000DCDC07E0D4E9012118F8010B9047206A08
:100DF000401C2062381EA7F10107F3DC2046FFF7F4
:100E0000BAFB032011B041E62DE9F04F04460D4630
:100E1000D21D22F0070089B0D0E900974846394634
:100E200002F01AF90246F80F01D02D2307E02068DE
:100E3000810701D52B2302E0202101EAC0038DF8B0
:100E400020300BB1012000E00020032A824601D0AF
:100E5000072A04DB2946204600F0D2F93FE120783A
:100E6000800601D40D2500E0E569C7F30A560D2D73
:100E700049DA00214FEA175B08464FF00000002FC7
:100E800000F4400007DA00EB80004FF4400100EB73
:100E9000D07001EA60008115012901DD4FF0FF31BA
:100EA00000224FEA850CBCF1180F06D31346ACF1B3
:100EB00018004FF08052C24003E04FF4801323FA31
:100EC0000CF30CF10C0CBCF1200F04D3ACF1200C92
:100ED00009FA0CF001E007FA0CF000294FF0004885
:100EE00001DD18B90FE00ED140450CD319EB020912
:100EF0005F4121B9404502D19F4329EA0209BBEB7A
:100F0000175F00D0761C2088000502D57B48784406
:100F100002E07A487844193808AA302302F80A30E7
:100F2000037C0AF10101002E0AF1020A53546A46B9
:100F300002DC4FF0300101E04FF031014FF00108C9
:100F40008DF8001002D0A6F2FF3603E059EA4701FF
:100F500000D06B4E002D02DC2178090704D54FF03C
:100F600002082E218DF80110C44600210BE0C7F3C2
:100F700003433F01C35C491C6D1E02F8083005297C
:100F800008F1010801DA002DF1DC00210CE000EB92
:100F90001973491C1B786D1E082902F808304FEAA6
:100FA000091908F1010801DA002DF0DC21688B062F
:100FB00002D516E0A8F10108E04505DD02EB0803C3
:100FC00013F8013C302BF5D0B8F1000F09DD02EB2E
:100FD000080313F8013C2E2B03D1090701D4A8F113
:100FE0000108002D05DD3E2102F808106D1E08F1F4
:100FF0000108407C002E02F8080008F1010804DA1C
:101000002D20764202F8080002E02B2002F80800AA
:101010000A214FF47A70864208F101080BDB96FB37
:10102000F0F3303302F8083096FBF0F308F10108D2
:1010300000FB136601E0642E0CDB642096FBF0F3EA
:10104000303302F8083096FBF0F308F1010800FB9A
:10105000136601E00A2E06DB96FBF1F0303002F851
:10106000080008F1010896FBF1F001FB1060303038
:1010700002F80800A16908F1010808EB050202EB7B
:101080000A00081AA0612078C00602D42046FFF7A3
:101090005CFA216A08AE01EB0A00206204E0D4E9A0
:1010A000012116F8010B9047BAF1010AF7D2207816
:1010B000C00602D52046FFF748FA6E4609E016F84A
:1010C000010B3E280FD0D4E901219047206A401C33
:1010D0002062B8F10108F2D22046FFF74CFA09B0BD
:1010E0000320BDE8F08F206A2844206203E0D4E9A1
:1010F0000121302090476D1EEBD3F8E785320000C8
:1011000002FCFFFF10B5436913B1AFF3008001E0AB
:10111000FFF754FA012010BD127800F124010A7083
:1011200000224A700122EDE711684FF0FF32E9E733
:1011300010B5436913B1AFF3008001E0FFF7F2FA95
:10114000012010BD128800F1240182840022C28493
:101150000122EDE711684FF0FF32E9E770B516465E
:101160000C46054600F040F8036893F80101012899
:1011700006D0FF2C0FD8185D68B101202C7070BD0F
:10118000D3F807013246214603F2071303442846E9
:10119000BDE8704018474FF0FF3070BD754600F055
:1011A000EBF8AE4605006946534620F00700854639
:1011B00018B020B5FFF74CF8BDE820404FF000060E
:1011C0004FF000074FF000084FF0000B21F007012F
:1011D000AC46ACE8C009ACE8C009ACE8C009ACE872
:1011E000C0098D467047000010B500F005F8001DDD
:1011F00010BD00BF39220000004870475800002091
:101200002DE9F0411F46044603260168072A01F430
:10121000006004DB08B116A505E016A503E008B1DF
:1012200015A500E015A521F010002060A069C01EE2
:10123000A0610FB1401EA0612046FFF786F94FB1B3
:10124000D4E9012138469047206A401C2062C01C26
:10125000206206E0206AFAE7D4E9012115F8010BC3
:101260009047761EF8D22046FFF785F9BDE8F08159
:101270004E414E006E616E00494E4600696E66003A
:101280002DE9F047814616468AB0354878440DC8A6
:101290008DE80D0032487844801C03AC0DC884E80A
:1012A0000D0041F69B300844372190FBF1F290FB92
:1012B000F1F5A5F1800501FB12041B3C02D5644247
:1012C000012000E00020DFF898A080460027FA44C3
:1012D000AAF1BE0A0EE0E0070AD03246684607EBE4
:1012E000470101230AEB810100F0E2FA8DE80700D3
:1012F00064107F1C002CEED1194F7F44AE3F19E0E3
:10130000E80715D007EB04100DF1180A90E80E005D
:101310008AE80E00C068F04201D198190890324660
:10132000012306A903A800F0C3FA03AB83E8070072
:101330006D10641C002DE3D14FF001033246694665
:10134000B8F1000F03A802D000F09DFA01E000F010
:10135000AFFAC9E90001C9F808200AB0BDE8F08772
:10136000982F000010B50446AFF300802046BDE87A
:101370001040FEF758BF00000048704738000020BA
:1013800001491820ABBEFEE72600020070475FEA65
:10139000400C08BF91F0000F4FEA8C234FEAC122A6
:1013A00043EA51514FEA1C5018BF00F5F0404FEA94
:1013B000300018BF41F000415FEA6C5C00F029800A
:1013C000BCF1FF3F08BF40F080407047130C06BFE0
:1013D00012044FF0100C4FF0000C130E04BF120259
:1013E0000CF1080C130F04BF12010CF1040C930F45
:1013F00004BF92000CF1020CD30F04BF52000CF199
:10140000010C11464FF00002A0F11F00A0EB0C00F0
:10141000704711F0004F08BF704731F000413FF4B2
:10142000D5AF0B0C06BF09044FF0100C4FF0000CA9
:101430000B0E04BF09020CF1080C0B0F04BF0901CD
:101440000CF1040C8B0F04BF89000CF1020CCB0FC4
:1014500004BF49000CF1010CCCF12003A0EB0C00FF
:1014600022FA03F302FA0CF241EA030100F101004F
:10147000704720F07F4C80EA030023F07F47ACEBFD
:10148000070303F57C5300F0004003F1FF032DE94F
:1014900080494FEA154B09B44FEA144325EA0B4E35
:1014A00024EA03480FF2042606EB132749083E7886
:1014B0005FEA320203FB0667C7F5000707FB06F683
:1014C0004FEA54374FEAD64606F1020607FB066C90
:1014D000CCF1005C4FEA1C472CEA074C07FB06F4F2
:1014E0000CFB06F504EB15464FEA961634BF0020B8
:1014F0004FF000404FEAD13706FB07FC4FEA1C4C87
:101500000CFB0BF7D21B03FB0CF761EB07010CFB89
:101510000EF7B0EB074072EB17420CFB08F734BF35
:10152000A2EB0742B2EB074261EB17414FEA0C44D2
:101530004FEA910706FB07FC4FEA1C4C0CFB0BF72C
:10154000B0EBC74072EB573203FB0CF734BFA2EB92
:10155000C742B2EBC74261EB57310CFB0EF7B0EB61
:10156000C70072EB57720CFB08F734BFA2EBC7023F
:10157000B2EBC70261EB5771039F4FEA816141EA09
:10158000921104EBCC044FEAD1374FEA826206FB9A
:1015900007FC42EA90124FEA80604FEA1C4C0CFBB9
:1015A0000BF7D21B03FB0CF761EB07010CFB0EF7EB
:1015B000B0EB074072EB17420CFB08F734BFA2EB0D
:1015C0000742B2EB074261EB17414FEA8C554FEAF5
:1015D000910704EB9C2406FB07FC4FEA1C4C0CFB18
:1015E0000BF7B0EBC74072EB573203FB0CF734BF7D
:1015F000A2EBC742B2EBC74261EB57310CFB0EF7CF
:10160000B0EBC70072EB57720CFB08F734BFA2EBCC
:10161000C702B2EBC70261EB577115EB4C254FEADD
:10162000816141EA92114FEA82624FEAD13742EA80
:10163000901206FB07FC44F100044FEA80604FEA79
:101640001C4C0CFB0BF7D21B03FB0CF761EB0701E7
:101650000CFB0EF7B0EB074072EB17420CFB08F7E0
:1016600034BFA2EB0742B2EB074261EB174115EB27
:101670001C154FEA813141EA92414FEA823242EA37
:1016800090424FEA80304FEA0C7644F1000448EA79
:1016900003434EEA0B484FF0000EB2EB080C71EB1F
:1016A000030724BF624639464EEB0E0E4FF0000B87
:1016B0000018524149414BEB0B0BB2EB080C71EB9C
:1016C00003077BF1000B24BF624639464EEB0E0E3A
:1016D0004FF0000B0018524149414BEB0B0BB2EBA2
:1016E000080C71EB03077BF1000B24BF62463946FF
:1016F0004EEB0E0E51EA020718BF46F0010616EB3C
:101700000E7655F1000254F1000103D5BDE88901C0
:10171000BDE80088BDE88901BDE80048B61952411E
:1017200041EB0101A3F10103704780807F7E7D7C46
:101730007B7A7978777676757473727171706F6E63
:101740006E6D6C6C6B6A6A6968686766666564640E
:10175000636362616160605F5F5E5E5D5D5C5C5B98
:101760005B5A5A5959585857575656555555545407
:10177000535352525251515050504F4F4F4E4E4D65
:101780004D4D4C4C4C4B4B4B4A4A4A4949494848B1
:1017900048474747474646464545454444444443F1
:1017A00043434342424242414141002B9C4630D494
:1017B00077002BD01CB54FEA370703B44FF0100069
:1017C0004FF01001BAF1000F06D0BCF1000FDCBFE2
:1017D00040F0080040F008014FF000000FBCBDE8E9
:1017E00010400BF1010BBBF1010F08BF5FEA1707B7
:1017F00022BF12F1010211F101014FF0004143F14A
:10180000000300F0004043EA00007047F9D3570896
:10181000D0E746EA064613F1400F4FEA16461FDDB1
:1018200013F1200FDFBF16430A46002120335B422D
:10183000BED0C3F1200746EA064602FA07F74FEA90
:10184000164646EA0706C3F1200722FA03F201FA18
:1018500007F721FA03F14FF0000342EA0702A7E776
:1018600046EA020646EA06464FEA164646EA0106F8
:10187000BCBF46EA0646360C4FF000034FF00002AC
:101880004FF0000194E72DE9804C9A46934670B4DE
:1018900091E8380007C831EA400C48BF34EA430CED
:1018A00003D5FFF7E6FDFFF780FFF0BCBDE8008C35
:1018B0002DE9804C9A46934670B491E8380007C8E9
:1018C00010F0804F08BF13F0804F03D100F005F8EF
:1018D000FFF76BFFF0BCBDE8008C20F07F4780EA8B
:1018E000030023F07F4C07EB0C03A3F57C5300F0BF
:1018F0000040A3F1FE0392F0000F00F0B38095F0DA
:10190000000F00F077802DE901494FEA11404FEABE
:10191000144621EA004800FB06FC24EA064708FBBF
:1019200006F607FB08F800FB07F718EB06484CEB38
:10193000164C4FEA124B18EB07484FEA15464CEB92
:10194000174022EA0B4E0BFB06FC25EA06470EFB6E
:1019500006F607FB0EFE0BFB07F71EEB064E4CEBE5
:10196000164C4FF000061EEB074E4CEB174B18EBD6
:101970000B0840F1000018EB0E0B58EB000840F18B
:1019800000008F1A4FF000013CBFC943661B14BF13
:10199000B5EB040C00213CBFC943F61B4FEA1744CA
:1019A0004EEA8E0E27EA04454FEA1C4704FB076205
:1019B0002CEA074C05FB07F70CFB05F604FB0CFCB7
:1019C00016EB074642EB174216EB0C4642EB1C4265
:1019D0001BEB060658EB0202414146EA9E0601D582
:1019E000BDE80189B619524141EB0101A3F10103A0
:1019F000BDE801894FEA14454FEA114724EA05463C
:101A000021EA074C05FB07F406FB07F70CFB06F180
:101A100005FB0CFC11EB074144EB17444FEA12475E
:101A200011EB0C4144EB1C4422EA074C05FB07F286
:101A300006FB07F70CFB06F605FB0CFC16EB07464E
:101A400042EB174216EB0C4642EB1C456A1854F168
:101A5000000148BF7047B619524141EB0101A3F1A3
:101A60000103704795F0000F37D04FEA11424FEA5B
:101A7000144721EA024624EA074C02FB07F106FB61
:101A800007F70CFB06F402FB0CFC14EB074441EBDC
:101A900017414FEA154714EB0C4441EB1C4125EA72
:101AA000074C02FB07F506FB07F70CFB06F602FBEB
:101AB0000CFC16EB074645EB174516EB0C4645EBC1
:101AC0001C42121951F1000148BF7047B61952412A
:101AD00041EB0101A3F1010370474FEA14454FEABE
:101AE000114724EA054621EA074C05FB07F106FBEE
:101AF00007F70CFB06F24FF0000605FB0CFC12EB9F
:101B0000074241EB174112EB0C4251EB1C4148BF1D
:101B10007047921841EB0101A3F1010370470000E7
:101B20001FB518224FF40071124801F0DFFA482265
:101B30004FF480610F4801F0D9FA0121880300F0C9
:101B400055FE4FF4165000900020ADF80400ADF89B
:101B50000600ADF808000C20ADF80A000020ADF832
:101B60000C006946044801F0A9F90121024801F07E
:101B70008BF91FBD000801400038014000BFFEE79F
:101B800010B5282000F02AF8002404E0601CC4B23C
:101B9000012001F094FA02210F4800F0E8F908B1A1
:101BA000642CF3DB642C01DB012010BD002404E075
:101BB000601CC4B2012001F082FA0221064800F044
:101BC000D6F908B9642CF3DB642C01DB0120ECE7C7
:101BD00000240020E9E70000000C014038B504466D
:101BE0000220ADF8000001208DF802008DF80340BE
:101BF0000121042000F0FAFD6946024800F02CF9AA
:101C000038BD0000000C014010B5002404E0601C49
:101C1000C4B2012001F053FA0221104800F0A7F9E4
:101C200008B1642CF3DB002404E0601CC4B2012082
:101C300001F045FA0221094800F099F908B9642C2D
:101C4000F3DB282001F03BFA0221044800F08FF971
:101C500008B1012010BD0020FCE70000000C01408D
:101C600070B50024002506E06006040EFFF7CCFFE7
:101C70000443681CC5B2082DF6DB204670BD7CB558
:101C800005460E4600F028F8FFF77AFFF8B9002461
:101C900005E0FFF7E5FF0DF80400601CC4B2052C59
:101CA000F7DB9DF800009DF8011008449DF8021034
:101CB00008449DF8031008449DF80410884208D198
:101CC0009DF8000028709DF80200307001E00120AE
:101CD0007CBD0020FCE7000010B51022022109485D
:101CE00001F004FA0021074800F04AF9142001F03D
:101CF000CEF90121034800F043F90D2001F0DFF98E
:101D000010BD0000000C01407047000010B5042019
:101D100000F02CF8012804D101221146014801F0FD
:101D200051F810BD0008004010B5102000F01EF85A
:101D3000012804D101221146014801F043F810BDE9
:101D40000008004010B5402000F010F8012804D130
:101D500001221146014801F035F810BD000800408D
:101D6000014908607047000014040140014600204A
:101D7000034A12680A400AB1012000E000207047BF
:101D800014040140002123498279002A3AD00A46EE
:101D9000126803689A430B461A600A1D12680368AA
:101DA0009A430B1D1A60027911440A6803681A43AA
:101DB0000A60184A0832126803689A43154B0833C0
:101DC0001A601A1D126803689A43124B0C331A608A
:101DD0004279102A0ED11A1F126803681A430D4B5C
:101DE00008331A601A1D126803681A43094B0C3332
:101DF0001A600DE00749427911440A6803681A43E2
:101E00000A6005E0027911440A6803689A430A608F
:101E1000704700000004014030B500228B071C0F02
:101E20000F2303FA04F20B4B8C1053F82430934326
:101E3000084C8D1044F8253023468C1053F824307C
:101E40008C07240F00FA04F42343024C8D1044F84D
:101E5000253030BD080001402DE9F0410246002543
:101E60000026002000230024002791F803C00CF076
:101E70000F0591F803C00CF0100CBCF1000F03D05B
:101E800091F802C04CEA050591F800C0BCF1000FC2
:101E900031D0146800202BE04FF0010C0CFA00F355
:101EA000B1F800C00CEA03069E4220D183004FF037
:101EB0000F0C0CFA03F7BC4305FA03FC4CEA0404CC
:101EC00091F803C0BCF1280F06D14FF0010C0CFAB9
:101ED00000FCC2F814C00AE091F803C0BCF1480F3E
:101EE00005D14FF0010C0CFA00FCC2F810C0401CE8
:101EF0000828D1D31460B1F800C0BCF1FF0F34DD65
:101F0000546800202EE000F1080C4FF0010808FA98
:101F10000CF3B1F800C00CEA03069E4221D1830005
:101F20004FF00F0C0CFA03F7BC4305FA03FC4CEA24
:101F3000040491F803C0BCF1280F05D100F1080C8E
:101F400008FA0CF8C2F8148091F803C0BCF1480FED
:101F500007D100F1080C4FF0010808FA0CF8C2F89C
:101F60001080401C0828CED35460BDE8F0810246A2
:101F7000002093680B400BB1012000E00020704767
:101F8000016170470AB1016100E04161704700BF23
:101F9000FEE7F8B507460C4615461E46ADF800406C
:101FA00001208DF8020028208DF8030001210C206B
:101FB00000F01CFC69463846FFF74EFF31462846C4
:101FC00000F002F8F8BD00003EB505460C46284674
:101FD000FFF7C6FE0121084600F008FC4021002062
:101FE000FFF71AFF019500208DF8080008208DF8F2
:101FF000090001208DF80A0001A8FFF7C3FE4FF485
:10200000C06000F01DF9E0B28DF8000000208DF8EE
:10201000010004208DF8020001208DF803006846BD
:1020200000F0D6F800BF04F01F01012088400349EA
:10203000620941F8220000BF3EBD000080E200E0DE
:1020400010B51723402211460748FFF7A2FF0A23C5
:10205000102211460448FFF79CFF08230422114672
:102060000148FFF796FF10BD0008014010B54FF47E
:1020700080510548FFF77BFF08B9012000E00020F0
:102080000446204610BD0000000C014008B50121A7
:10209000082000F0ABFB4FF48050ADF80000482062
:1020A0008DF8030069460248FFF7D6FE08BD000020
:1020B000000C014000BFFEE708B50121082000F038
:1020C00095FB14208DF803004FF44060ADF800003C
:1020D00003208DF8020069460448FFF7BDFE4FF467
:1020E00040610248FFF74CFF08BD0000000C0140B2
:1020F00010B54FF480610348FFF739FF04462046CE
:1021000010BD0000000C014010B5012000F046F8A1
:10211000012000F037F8FFF7EBFF0446002000F045
:1021200031F8204610BD70B5054600240DE0802131
:10213000214101EA050000F031F8012000F022F809
:10214000002000F01FF8601CC4B2082CEFDB70BD4B
:1021500010B5012000F022F8012000F013F8002053
:1021600000F01CF8002000F00DF810BD10B50020A4
:1021700000F014F8012000F005F8012000F00EF83E
:1021800010BD000010B5044622464FF4006102481D
:10219000FFF7F8FE10BD0000000C014010B504462A
:1021A00022464FF480610248FFF7ECFE10BD0000AC
:1021B000000C01407047000000F01F020121914017
:1021C000024A430942F823107047000080E200E011
:1021D00070B5002100230F22C47804B3154C246885
:1021E00004F4E064C4F5E064210AC1F10403CA40C8
:1021F000447804FA03F184781440214309010E4C19
:102200000678A155047804F01F050124AC40057838
:102210006D11AD0005F1E025C5F8004109E0047835
:1022200004F01F050124AC40044D0678761145F8F2
:10223000264070BD0CED00E000E400E080E100E02D
:1022400002490143024A1160704700000000FA058C
:102250000CED00E010B52A480078012806D1294984
:102260002948FFF70CFD0020254908702748007811
:10227000012804D100F002F9002024490870244804
:102280000078012801D100F03DF9214800780228AA
:1022900001D100F057F91E480078032807D100202B
:1022A0001B49087008231BA2062100F04BFA1848AE
:1022B0000078042802DB00201549087014480078D3
:1022C000012806D10823184802780621482000F08A
:1022D00023FA0F480078022806D108231348027811
:1022E0000621482000F018FA0948007838B90E484D
:1022F00000780F4908700D4800780E49087010BD2D
:102300001F00002018000020170000201E000020E1
:102310001D00002020202020202020202020202000
:102320002020202000000000190000201A000020BA
:102330001B0000201C00002070B500240EE0214688
:10234000002000F01DF9002504E0002000F027FA2D
:10235000681CC5B2802DF8DB601CC4B2082CEEDB13
:1023600070BD10B5FFF7A8FE642000F090FEAE200F
:1023700000F0FFF9D52000F0FCF9802000F0F9F919
:10238000A82000F0F6F93F2000F0F3F9D32000F088
:10239000F0F9002000F0EDF9402000F0EAF9A1206A
:1023A00000F0E7F9C82000F0E4F9DA2000F0E1F9E4
:1023B000122000F0DEF9812000F0DBF9CF2000F0E0
:1023C000D8F9D92000F0D5F9F12000F0D2F9DB20BE
:1023D00000F0CFF9302000F0CCF9A42000F0C9F9CA
:1023E000A62000F0C6F98D2000F0C3F9142000F0FB
:1023F000C0F9AF2000F0BDF9642000F048FE10BD28
:1024000010B5FFF7AEFFFFF797FF0BA200210846BC
:1024100000F014F908230FA20321002000F092F924
:1024200010A20621052000F009F9022000F03BFE71
:10243000FFF782FF10BD0000E699BAE883BDE5AE64
:10244000B6E5BAADE5AE89E998B2E7B3BBE7BB9FA5
:102450000000000076312E3020323032362F3032FC
:102460002F303900E8B5A3EFBFA5E4B89CEFBFA5B6
:10247000E5ADA6EFBFA5E999A200000008B519A235
:102480000021084600F0DAF808233A220021202033
:1024900000F088F8154802230E2200210090382011
:1024A00000F018F912A21221002000F0C7F808234A
:1024B0003A221221202000F075F808230EA21221E2
:1024C000382000F03FF908230C480278002128202A
:1024D00000F022F908230A4802781221282000F08F
:1024E0001BF908BDE6B8A9E5BAA6000060340008EB
:1024F000E6B9BFE5BAA60000255248001800002042
:102500001700002008B50AA20621002000F096F866
:1025100008233A220621402000F044F8084802230C
:102520000E2206210090582000F0D4F808BD0000CB
:10253000E6B8A9E5BAA6E99888E580BC00000000E5
:102540006034000810B509A20621002000F076F8DA
:1025500008233A220621402000F024F8082307A28D
:102560000621582000F0EEF810BD0000E6B9BFE5E6
:10257000BAA6E99888E580BC000000002552480012
:1025800070B504460D4604F00F0000F0F2F810217B
:1025900041EA141000F0EDF845F0B00000F0E9F861
:1025A00070BD00002DE9F04180460F4614461D46DF
:1025B000062D14D139464046FFF7E2FF00260BE016
:1025C000A4F1200101EB41011A4A02EB4101885DAF
:1025D00000F0E5F8701CC6B2062EF1DB28E0082DED
:1025E00026D139464046FFF7CBFF002609E0A4F18B
:1025F0002001114A02EB0111885D00F0D0F8701C37
:10260000C6B2082EF3DB781CC1B24046FFF7B8FF14
:1026100000260BE0A4F12001074A02EB011206F1AB
:102620000801505C00F0BBF8701CC6B2082EF1DB4C
:10263000BDE8F0816C3A00087C3400082DE9FC47C5
:10264000804689461646002001900027002538E084
:10265000705D01A9C855781CC7B2032F2FDB002776
:1026600000240BE004EBC401184A02EB810001A92D
:10267000FDF728FF00B90BE0601CC4B204EBC401F5
:10268000124A02EB810012A1FDF71CFF0028E9D1DC
:1026900000BF681C032190FBF1F0401E08EB001006
:1026A00000F0FF0A04EBC400084901EB8000001DA4
:1026B0000223102249460090504600F00BF8681C97
:1026C000C5B2705D0028C3D1BDE8FC87C23C0008DC
:1026D000000000002DE9F04781460F461546984658
:1026E000DDF820A0002412E03819C1B24846FFF7F7
:1026F00047FF002607E005FB04611AF8010000F01F
:102700004EF8701CC6B2AE42F5DB601CC4B2444544
:10271000EADBBDE8F08700002DE9FC4104460D46E8
:1027200016461F46324606A16846FDF7B5FD3B46F4
:102730006A462946204600F005F8BDE8FC81000005
:10274000256400002DE9F0410646884615461F46DF
:10275000002409E02A5D04FB0761C8B23B464146FC
:10276000FFF720FF601CC4B2285D0028F2D1BDE84D
:10277000F08110B50446FFF7EBFC7820FFF7D3FC9F
:10278000FFF7C2FC0020FFF7CEFCFFF7BDFC2046A0
:10279000FFF7C9FCFFF7B8FCFFF7E8FC10BD10B568
:1027A0000446FFF7D5FC7820FFF7BDFCFFF7ACFC33
:1027B0004020FFF7B8FCFFF7A7FC2046FFF7B3FC6B
:1027C000FFF7A2FCFFF7D2FC10BD704729B1064A03
:1027D000D2690243044BDA6104E0034AD2698243BE
:1027E000014BDA61704700000010024029B1064A2F
:1027F00092690243044B9A6104E0034A926982435E
:10280000014B9A61704700000010024030B5002172
:102810000022002400232D4D6D6805F00C0121B12C
:10282000042905D0082923D105E0294D056022E0BF
:10283000274D05601FE0254D6D6805F47012234D8E
:102840006D6805F48034022505EB92421CB9214DD8
:10285000554305600BE01D4D6D6805F400351DB155
:102860001C4D5543056002E0194D5543056002E0DB
:10287000174D056000BF00BF144D6D6805F0F001F5
:102880000909154D6B5C0568DD4045600F4D6D68AD
:1028900005F4E061090A104D6B5C4568DD40856018
:1028A0000A4D6D6805F46051C90A0B4D6B5C4568B3
:1028B000DD40C560054D6D6805F44041890B074D4D
:1028C0006B5CC568B5FBF3F5056130BD00100240D7
:1028D00000127A0000093D000300002013000020D0
:1028E000704710B500F002F810BD00000CB50020D4
:1028F000019000903348006840F48030314908600E
:1029000000BF3048006800F4003000900198401C7F
:102910000190009818B90198B0F5A06FF1D129483D
:10292000006800F4003010B10120009001E00020A8
:1029300000900098012843D12348006840F010001F
:10294000214908600846006820F003000860084636
:10295000006840F0020008601A4840681949486061
:102960000846406848600846406840F48060486017
:102970000846406820F47C1048600846406840F4EF
:10298000E81048600846006840F08070086000BFAA
:102990000C48006800F000700028F9D00948406831
:1029A00020F00300074948600846406840F00200F4
:1029B000486000BF0348406800F00C000828F9D1C7
:1029C0000CBD0000001002400020024070470000D3
:1029D00010B51348006840F001001149086008462E
:1029E0004068104908400E494860084600680E4992
:1029F00008400B4908600846006820F48020086001
:102A00000846406820F4FE0048604FF41F008860CC
:102A1000FFF767FF4FF000600449086010BD000039
:102A2000001002400000FFF8FFFFF6FE08ED00E096
:102A300010B50121880700F0B4F901280DD107492C
:102A400008700748007808B9012000E00020044918
:102A500008700121880700F095F910BD1F000020C3
:102A60001E0000201FB501210846FFF7AFFE4FF002
:102A7000804000F0B0F940F2CF70ADF8080048F6A1
:102A80009F40ADF804000020ADF80A00ADF8060044
:102A900001A94FF0804000F0A5F94FF4C060FFF7A6
:102AA000CFFB1C208DF8000000208DF801000120D4
:102AB0008DF802008DF803006846FFF789FB0122BC
:102AC0001146900700F07EF91C20FFF775FB0121ED
:102AD000880700F05AF91FBD10B501210C4800F01D
:102AE00060F9012813D10BA000F05EFA02210D4815
:102AF000007800F085FA0CA000F056FA02210E488A
:102B0000007800F07DFA0121014800F03BF910BD8A
:102B100000040040E5BD93E5898DE6B8A9E5BAA6B5
:102B20000000000018000020E5BD93E5898DE6B99E
:102B3000BFE5BAA600000000170000201FB5012164
:102B40000220FFF743FE1A4800F045F940F6B7307F
:102B5000ADF8080048F69F40ADF804000020ADF83D
:102B60000A00ADF8060001A9114800F03BF94FF446
:102B7000C060FFF765FB1D208DF8000000208DF878
:102B8000010002208DF8020001208DF80300684644
:102B9000FFF71EFB01221146054800F013F91D2026
:102BA000FFF70AFB0121024800F0EFF81FBD00000B
:102BB0000004004010B54020FFF7D8F8012801D1EB
:102BC000012400E0002440214C48FFF7D0F90128FF
:102BD00000D100E0002004402CB149480078401C9E
:102BE000474908707CE01020FFF7C0F8012801D1A8
:102BF000012400E0002410214048FFF7B8F9012823
:102C000000D100E0002020403D490978012900D191
:102C100000E00021084028B13A480078401C3949BA
:102C200008705DE01020FFF7A1F8012801D1012410
:102C300000E0002410213148FFF799F9012800D164
:102C400000E0002020402E490978022901D101210D
:102C500000E00021084028B12B480078401C2A4998
:102C600008703DE00420FFF781F8012801D101241C
:102C700000E0002404212148FFF779F9012800D160
:102C800000E0002020401E490978012900D100E021
:102C90000021084028B11B480078401E19490870DF
:102CA0001EE00420FFF762F8012801D1012400E0B2
:102CB000002404211148FFF75AF9012800D100E04F
:102CC000002020400E490978022901D1012100E0AD
:102CD0000021084020B10C480078401E0A490870C5
:102CE00000220121094800F06DF80121074800F099
:102CF00049F85420FFF734F810BD000000080140E7
:102D00001D000020190000201A00002000080040CB
:102D10001FB501210420FFF759FD194800F05BF8A9
:102D20003120ADF8080048F69F40ADF804000020BF
:102D3000ADF80A00ADF8060001A9114800F052F8FC
:102D40004FF4C060FFF77CFA1E208DF800000020D1
:102D50008DF8010003208DF8020001208DF803009A
:102D60006846FFF735FA00220121054800F02AF8ED
:102D70001E20FFF721FA0121014800F006F81FBDCF
:102D800000080040CA430282704721B1028842F025
:102D90000102028004E002884FF6FE731A400280AE
:102DA000704730B50246002000230024158A05EA4A
:102DB0000103958905EA010413B10CB1012000E07B
:102DC000002030BD1AB183890B43838102E08389DF
:102DD0008B438381704701894FF6F872114001815E
:102DE00070470000002202881D4B98420ED01D4BF8
:102DF00098420BD0B0F1804F08D01B4B984205D0C1
:102E00001A4B984202D01A4B984204D14FF68F7356
:102E10001A404B881A43174B984207D0164B9842DA
:102E200004D04FF6FF431A40CB881A4302808B88A8
:102E300083850B8803850A4B98420BD0094B984237
:102E400008D00E4B984205D00D4B984202D00D4B46
:102E5000984201D10B7A03860123838270470000D8
:102E6000002C0140003401400004004000080040F4
:102E7000000C0040001000400014004000400140E1
:102E8000004401400048014021B1828942F40052CF
:102E9000828104E082894DF6FF731A408281704777
:102EA00002460020B1F5007F00D100BF13880B401F
:102EB0000BB1012000E00020704700002DE9F04731
:102EC00086B005460E460024A24600BFA146002754
:102ED000B08900B100BF2F462C8A4CF6FF70044029
:102EE000F08804432C82AC894EF6F3100440B0887D
:102EF00031890843718908430443AC81AC8A4FF699
:102F0000FF400440B0890443AC8201A8FFF77EFC77
:102F10001F48874202D1DDF810A001E0DDF80CA0C7
:102F2000A88900F4004040B10AEBCA0000EB0A1087
:102F300031684900B0FBF1F807E00AEBCA0000EB8A
:102F40000A1031688900B0FBF1F86420B8FBF0F09A
:102F500004012009642101FB1089A88900F40040C4
:102F600040B1322000EBC900B0FBF1F000F00700E7
:102F7000044308E0322000EB09106421B0FBF1F0BB
:102F800000F00F0004432C8106B0BDE8F08700007C
:102F90000038014010B50246012000E050430B1EEE
:102FA000A1F10101FAD110BD0FB400B59BB01DA86D
:102FB000019002A8019A1C99FDF75CF9002001908C
:102FC00002A800F03AF81BB05DF814FB01468888AF
:102FD000C0F308007047000010B5044621460548BC
:102FE00000F00AF800BF80210248FFF759FF0028CF
:102FF000F9D010BD00380140C1F30802828070474B
:103000002DE9F04106460C46002512E0601B411EEA
:103010000A20FFF7BFFFB6FBF0F00A21B0FBF1F288
:1030200001FB120000F130073846FFF7D5FF681C9E
:10303000C5B2A542EADBBDE8F08170B504460025C3
:1030400004E0605DFFF7C8FF681CC5B2605D002842
:10305000F7D170BD00BFFEE7490050EAC12018BF9C
:1030600004204A0D18BF40F0010040F2FF72B2EB9D
:10307000515F08BF40F00200012808BF05207047DB
:1030800030380A2801D2012070470020704700B56F
:10309000034603E04FF47A7000F011F8181EA3F114
:1030A0000103F7D100BD10B5044603E04FF47A7078
:1030B000FFF7EDFF201EA4F10104F7D110BD00EBD6
:1030C000C001C9004FF0E02251610021916105214A
:1030D000116100BF4FF0E021096901F4803100293E
:1030E000F8D004214FF0E02211617047F8B5064690
:1030F0000C461546ADF8004001208DF802008DF811
:10310000035001210C20FFF771FB69463046FEF7A2
:10311000A3FEF8BDFEF704FD1022D1019948FFF788
:10312000E5FF102211019748FFF7E0FF102202216E
:103130009448FFF7DBFF482201219248FFF7D6FFB2
:10314000012202218F48FEF71DFFFFF78BFCFFF7DE
:10315000F5FCFFF7DDFDFFF753F9FEF771FFFEF712
:1031600095FF012211028748FEF70CFF08E1FEF7E8
:103170007DFF8549087001218248FEF7F8FE8349EA
:103180000870FFF767F820218148FFF789FE0128C2
:1031900004D17F48FFF71AFF7E4908707B4800780A
:1031A00008B9012000E000207B4909787B4A1278A9
:1031B000914201DB012100E000210843A8B178A27F
:1031C00004210020FFF73AFA002202216D48FEF7A1
:1031D000D9FE0122D1026B48FEF7D4FE00224FF443
:1031E00080716848FEF7CEFE4BE071480078714967
:1031F0000978884215DB70A204210020FFF71EFA2F
:10320000002202215F48FEF7BDFE0122D1025D4887
:10321000FEF7B8FE00224FF480715A48FEF7B2FE66
:103220002FE059480078012815D167A20421002019
:10323000FFF704FA002202215248FEF7A3FE012202
:10324000D1025048FEF79EFE00224FF480714D4897
:10325000FEF798FE15E0082361A204210020FFF785
:1032600071FA012202214748FEF78CFE0122110269
:103270004448FEF787FE00224FF400614148FEF704
:1032800081FE44480078012807D15A480078401C44
:103290005849087000203F4908703E4800780228CD
:1032A00001D1012000E0002052490978022901D112
:1032B000012100E00021084038B14F480078401C4F
:1032C0004D490870002033490870324800780328BF
:1032D00001D1012000E0002046490978022901D1EE
:1032E000012100E00021084038B143480078401E29
:1032F00041490870002027490870264800780228B4
:1033000001D1012000E000203A490978012900D1CB
:1033100000E00021084038B138480078401C3749A7
:10332000087000201B4908701A480078032801D152
:10333000012000E000202F490978012900D100E098
:103340000021084038B12D480078401E2B490870F4
:103350000020104908700F480078042804D100228A
:1033600002210848FEF70EFE0A480078052807D11A
:10337000012202210348FEF705FE002005490870DE
:10338000F5E60000000801400000002001000020D8
:103390000038014002000020180000201B0000201F
:1033A000E6B3A8E6848FE781ABE781BE00000000AA
:1033B000170000201C000020E6B3A8E6848FE6B0CA
:1033C000B4E781BE00000000E6B3A8E6848FE7877B
:1033D00083E6B094EFBC8CE7839FE99BBE000000BE
:1033E00020202020202020202020202020202020DD
:1033F000000000001D0000201A000020190000201D
:1034000010B500290AD00878002807D0054878446C
:10341000FDF758F8002801D0002010BD024878447C
:1034200010BD0000520E00004A0E000010B5002929
:103430000AD00878002807D005487844FDF742F8FC
:10344000002801D0002010BD0248784410BD0000C3
:10345000420E00003A0E0000FDF7A0BBFDF7D4BC01
:103460000C1212EC10080808080808107800000078
:10347000000F102020202020201008000000000055
:10348000000000000000000000000000000000F844
:1034900000000000000000333000000000160E00A5
:1034A000160E0000000000000000000040C0784040
:1034B000C0784000043F04043F040400007088FC0E
:1034C00008300000001820FF211E0000F008F00066
:1034D000E018000000211C031E211E0000F00888D7
:1034E000700000001E21232419272110000000165F
:1034F0000E0000000000000000000000000000E0DE
:103500001804020000000007182040000002041800
:10351000E00000000040201807000000404080F05C
:10352000804040000202010F01020200000000F092
:10353000000000000101011F010101000000000066
:103540000000000000B0700000000000000000005B
:103550000000000000010101010101010000000064
:1035600000000000003030000000000000000000FB
:1035700080601804006018060100000000E01008D8
:103580000810E000000F102020100F00001010F8AD
:10359000000000000020203F2020000000700808EC
:1035A000088870000030282422213000003008886C
:1035B000884830000018202020110E000000C02094
:1035C00010F8000000070424243F240000F80888B5
:1035D000880808000019212020110E0000E0108842
:1035E00088180000000F112020110E000038080874
:1035F000C83808000000003F000000000070880884
:1036000008887000001C222121221C0000E0100804
:103610000810E0000000312222110F00000000C05D
:10362000C00000000000003030000000000000C0BA
:10363000C0000000000080B070000000000080406A
:103640002010080000010204081020004040404003
:103650004040400004040404040404000008102056
:10366000408000000020100804020100007048089B
:103670000808F0000000003036010000C030C82803
:10368000E810E0000718272423140B000000C038BE
:10369000E0000000203C23020227382008F8888838
:1036A00088700000203F202020110E00C030080844
:1036B00008083800071820202010080008F808081B
:1036C0000810E000203F202020100F0008F8888814
:1036D000E8081000203F20202320180008F88888E0
:1036E000E8081000203F200003000000C030080858
:1036F0000838000007182020221E020008F80800E1
:103700000008F808203F210101213F20000808F8A7
:10371000080800000020203F2020000000000808CA
:10372000F8080800C08080807F00000008F888C08A
:1037300028180800203F20012638200008F808003B
:1037400000000000203F20202020300008F8F80072
:10375000F8F80800203F003F003F200008F830C084
:103760000008F808203F200007183F00E010080874
:103770000810E0000F10202020100F0008F80808A3
:103780000808F000203F210101010000E0100808B6
:103790000810E0000F18242438504F0008F88888DB
:1037A00088887000203F2000030C302000708808BB
:1037B000080838000038202121221C00180808F8C9
:1037C000080818000000203F2000000008F808004A
:1037D0000008F808001F202020201F00087888001B
:1037E00000C83808000007380E010000F80800F88B
:1037F0000008F800033C0700073C03000818688035
:103800008068180820302C03032C30200838C800AA
:10381000C83808000000203F2000000010080808F9
:10382000C83808002038262120201800000000FE9B
:10383000020202000000007F40404000000C30C047
:1038400000000000000000010638C0000002020273
:10385000FE000000004040407F00000000201008F3
:10386000040810200000000000000000000000001C
:10387000000000008080808080808080000204083A
:103880000000000000000000000000000000808038
:10389000808000000019242222223F2008F80080A6
:1038A00080000000003F112020110E000000008069
:1038B00080800000000E11202020110000000080F8
:1038C0008088F800000E112020103F20000080802A
:1038D00080800000001F222222221300008080F03E
:1038E000888888180020203F202000000000808069
:1038F00080808000006B94949493600008F80080AE
:1039000080800000203F210000203F200080989808
:10391000000000000020203F202000000000008068
:103920009898000000C08080807F000008F80000A8
:1039300080808000203F24022D302000000808F8FD
:10394000000000000020203F2020000080808080B8
:1039500080808000203F20003F20003F00808000CA
:103960008080000000203F2100203F200000808058
:1039700080800000001F202020201F008080008009
:103980008000000080FFA12020110E0000000080B8
:1039900080808000000E112020A0FF8080808000A9
:1039A0008080800020203F212000010000008080D6
:1039B000808080000033242424241900008080E0CB
:1039C000808000000000001F202000008080000098
:1039D00000808000001F202020103F208080800079
:1039E0000080808000010E30080601008080008089
:1039F000008080800F300C030C300F0000808000AE
:103A0000808080000020312E0E31200080808000D8
:103A10000080808080818E70180601000080808088
:103A2000808080000021302C222130000000000026
:103A3000807C020200000000003F404000000000C7
:103A4000FF00000000000000FF0000000002027CF8
:103A5000800000000040403F000000000080404027
:103A60008000008000000000000101000000000054
:103A700000000000002F00000000070007000014F5
:103A80007F147F1400242A7F2A1200231308646203
:103A900000364955225000000007000000001C229B
:103AA0004100000041221C000014083E08140008D8
:103AB000083E0808000000A0600000080808080888
:103AC000000060600000002010080402003E514920
:103AD000453E0000427F40000042615149460021BE
:103AE00041454B31001814127F10002745454539D8
:103AF000003C4A4949300001710905030036494933
:103B0000493600064949291E0000363600000000EB
:103B10005636000000081422410000141414141436
:103B2000000041221408000201510906003E4955D7
:103B3000592E007C1211127C007F49494936003E03
:103B400041414122007F4141221C007F49494941B6
:103B5000007F09090901003E4149497A007F0808B0
:103B6000087F0000417F4100002040413F01007F6D
:103B700008142241007F40404040007F020C027F39
:103B8000007F0408107F003E4141413E007F09094B
:103B90000906003E4151215E007F09192946004671
:103BA000494949310001017F0101003F4040403F48
:103BB000001F2040201F003F4038403F0063140892
:103BC000146300070870080700615149454300006D
:103BD0007F414100000204081020000041417F00A5
:103BE0000004020102040040404040400000010285
:103BF0000400002054545478007F4844443800386E
:103C00004444442000384444487F003854545418F5
:103C100000087E0901020018A4A4A47C007F080407
:103C200004780000447D4000004080847D00007FD7
:103C3000102844000000417F4000007C04180478F4
:103C4000007C0804047800384444443800FC2424F0
:103C500024180018242418FC007C080404080048D8
:103C60005454542000043F444020003C4040207CF9
:103C7000001C2040201C003C4030403C00442810E8
:103C80002844001CA0A0A07C004464544C440000C4
:103C9000087F41000000007F00000000417F080015
:103CA0000008040810080C1212EC10080808080894
:103CB000081078000000000F102020202020201085
:103CC0000800E4BDA000008060F8074020180F083D
:103CD000C80808281800010000FF00100C034080ED
:103CE0007F0001061800E5A5BD001010F01F10F0C0
:103CF00000808282E2928A86800040221508166146
:103D0000000040807F0000000000E699BA00109497
:103D100053321E325210007E4242427E00000000AA
:103D200000FF49494949494949FF00000000E8832B
:103D3000BD0008CC4A49484ACC18007F8888848254
:103D4000E00000FF121252927F00007E8888848279
:103D5000E000E5AEB600102C2424A4A465A624241B
:103D60002424A4340C0040494929241452897F0496
:103D70000A1110202000E5BAAD000000FC0414D4A4
:103D80003405262424E41414140040300F804931F3
:103D90002F404949494F49494900E5AE8900809083
:103DA0008C848484F58684848484948C8000008050
:103DB000808446492810102C234080000000E99898
:103DC000B20000FE0222DA060808F8898E88888888
:103DD000080000FF0810088740300F004080403F77
:103DE0000000E7B3BB00000022322AA6A262211124
:103DF000098101000000004222130B42827E020270
:103E00000A1223460000E7BB9F002030AC6330005D
:103E100088C8A8998E88A8C88800226722121280B4
:103E200040300F00003F40407100E8B5A30012D6BB
:103E30005A535AD612286457CA56522020001017D7
:103E400015FD15171081BD453545BD010000E4B8CD
:103E50009C000008884828180FE808080808080887
:103E60000000002011090541817F01010509112091
:103E70000000E5ADA600403011969090919690908C
:103E8000981413503000040404040444847E06058E
:103E9000040404040400E999A20000FE225A8610DA
:103EA0000C242425262424140C0000FF0408078079
:103EB00041310F01013F41417100EFBFA5000000FA
:103EC00000000000000000000000000000000000F2
:103ED0000000000000000000000000000000EFBC37
:103EE0009A00000000000000000000000000000038
:103EF0000000000036360000000000000000000056
:103F00000000EFBC8C00000000000000000000007A
:103F10000000000000000000583800000000000011
:103F2000000000000000E6B9BF001060028C00FE37
:103F3000929292929292FE00000004047E01444804
:103F4000507F40407F5048444000E6B8A9001060D0
:103F5000028C0000FE9292929292FE0000000404F5
:103F60007E01407E42427E427E42427E4000E5BA71
:103F7000A6000000FC242424FC252624FC24242460
:103F8000040040308F80844C55252525554C808079
:103F90008000E2848300060909E6F80C04020202AC
:103FA0000202041E0000000000071F3020404040B5
:103FB000404020100000E998880000F80122A0A2EB
:103FC000A222FE22AA3202FE000000FF0010130A05
:103FD0004B20170C133880FF0000E580BC000080E8
:103FE00060F80704E4A4A4BFA4A4E4040000010052
:103FF00000FF40407F4A4A4A4A4A7F404000E6B0BC
:10400000B40000202020A06000FF60804020180045
:104010000000201008060140807F00010204081003
:104020001000E781AB000000C038000000FF000076
:1040300040201800000080814020100C0300030C79
:10404000102040808000E781BE00100C04C40404EE
:1040500005F604040404C4140C00808042412010BE
:104060000C030C10224140808000E78783008070A1
:1040700000FF10289827C43C907F901214008060A5
:1040800018070898640328C621C01126C800E6B0A6
:10409000940020104C4754545454545454D40404A1
:1040A000000000000000000000000000000F304091
:1040B000F000E6B3A8001060028C0008080809FAB6
:1040C00008080808000004047E0140404141417F87
:1040D000414141414000E6848F00101012D2565AEF
:1040E0005253525A56D21210100040300077858534
:1040F0008DB5858585E700106000E7839F0080709F
:1041000000FF1008FE424242FA424242FE00806036
:1041100018070810FF50484641424C40FF00E99BF9
:10412000BE00100C055555D5057F05555555051490
:104130000C001010108AA96B352525ABE90810106A
:104140001000040000080000000000000002000150
:104150000000100000000000000000003031323389
:1041600034353637383941424344454640305800AB
:1041700030313233343536373839616263646566DD
:104180004030780030313233343536373839616277
:1041900063646566787000303132333435363738D1
:1041A0003941424344454658500000000240000057
:1041B000000000A00000000005400000000000C852
:1041C000000000000C4000000000409C00000000C7
:1041D000194000000020BCBE000000003440000078
:1041E000BFC91B8E00000004B5400000504BCFD06B
:1041F0006607E2CF010000006C4100003E8251AA38
:10420000DFEEA73401000000D9420000DCB5A0E2D7
:104210003A301F97FFFFFFFFB4450000FD25A0C8FF
:10422000E9A3C14FFFFFFFFFFF3F00000000008038
:1042300000000000FF3F00000000008000000000C0
:104240008C4300080000002038000000280100080E
:10425000C443000838000020600600004401000844
:104260001C00000043000000F8FFFFFF0C000000EE
:104270000E0000000F0000002E00000010010000E2
:1042800043000000F8FFFFFF004040404040404036
:104290004040414141414140404040404040404019
:1042A00040404040404040404005020202020202BD
:1042B000020202020202020202202020202020200C
:1042C0002020200202020202020290909090909020
:1042D00010101010101010101010101010101010DE
:1042E0001010101002020202020288888888888852
:1042F000080808080808080808080808080808083E
:104300000808080802020202400000000000000045
:10431000000000000000000000000000000000009D
:10432000000000000000000000000000000000008D
:10433000000000000000000000000000000000007D
:10434000000000000000000000000000000000006D
:10435000000000000000000000000000000000005D
:10436000000000000000000000000000000000004D
:10437000000000000000000000000000000000003D
:10438000000000000000000000000000000000002D
:1043900000000001020304010203040607080902E9
:1043A000040608000028460000000000000000008D
:1043B00000000000000000000000000000000000FD
:0443C00000000000F9
:04000005080000ED02
:00000001FF
